{
	"SmartWallet.sol": {
		"SmartWallet": {
			"abi": [
				{
					"inputs": [],
					"stateMutability": "nonpayable",
					"type": "constructor"
				},
				{
					"inputs": [
						{
							"internalType": "address",
							"name": "_add",
							"type": "address"
						},
						{
							"internalType": "uint256",
							"name": "amount",
							"type": "uint256"
						}
					],
					"name": "AddAllowance",
					"outputs": [],
					"stateMutability": "nonpayable",
					"type": "function"
				},
				{
					"inputs": [
						{
							"internalType": "address",
							"name": "_add",
							"type": "address"
						}
					],
					"name": "AddGuirdian",
					"outputs": [],
					"stateMutability": "nonpayable",
					"type": "function"
				},
				{
					"inputs": [
						{
							"internalType": "string",
							"name": "_input",
							"type": "string"
						}
					],
					"name": "EncodeString",
					"outputs": [
						{
							"internalType": "bytes",
							"name": "",
							"type": "bytes"
						}
					],
					"stateMutability": "pure",
					"type": "function"
				},
				{
					"inputs": [],
					"name": "GetBalance",
					"outputs": [
						{
							"internalType": "uint256",
							"name": "",
							"type": "uint256"
						}
					],
					"stateMutability": "view",
					"type": "function"
				},
				{
					"inputs": [],
					"name": "GetCurrentUser",
					"outputs": [
						{
							"internalType": "address",
							"name": "",
							"type": "address"
						}
					],
					"stateMutability": "view",
					"type": "function"
				},
				{
					"inputs": [],
					"name": "GetOwner",
					"outputs": [
						{
							"internalType": "address",
							"name": "",
							"type": "address"
						}
					],
					"stateMutability": "view",
					"type": "function"
				},
				{
					"inputs": [
						{
							"internalType": "address",
							"name": "_add",
							"type": "address"
						}
					],
					"name": "ProposeNewOwner",
					"outputs": [],
					"stateMutability": "nonpayable",
					"type": "function"
				},
				{
					"inputs": [
						{
							"internalType": "address",
							"name": "_to",
							"type": "address"
						},
						{
							"internalType": "uint256",
							"name": "Amount",
							"type": "uint256"
						},
						{
							"internalType": "bytes",
							"name": "payload",
							"type": "bytes"
						}
					],
					"name": "Transfer",
					"outputs": [
						{
							"internalType": "bytes",
							"name": "",
							"type": "bytes"
						}
					],
					"stateMutability": "nonpayable",
					"type": "function"
				},
				{
					"inputs": [
						{
							"internalType": "address",
							"name": "AllowanceAdd",
							"type": "address"
						}
					],
					"name": "ViewAllowanceMember",
					"outputs": [
						{
							"internalType": "bool",
							"name": "isAllwanceUser",
							"type": "bool"
						},
						{
							"internalType": "uint256",
							"name": "AllowanceAmount",
							"type": "uint256"
						}
					],
					"stateMutability": "view",
					"type": "function"
				},
				{
					"inputs": [
						{
							"internalType": "address",
							"name": "_add",
							"type": "address"
						}
					],
					"name": "viewGuardian",
					"outputs": [
						{
							"internalType": "bool",
							"name": "",
							"type": "bool"
						}
					],
					"stateMutability": "view",
					"type": "function"
				},
				{
					"stateMutability": "payable",
					"type": "receive"
				}
			],
			"devdoc": {
				"kind": "dev",
				"methods": {},
				"version": 1
			},
			"evm": {
				"assembly": "    /* \"SmartWallet.sol\":75:3158  contract SmartWallet {... */\n  mstore(0x40, 0x80)\n    /* \"SmartWallet.sol\":395:446  constructor() {... */\n  callvalue\n  dup1\n  iszero\n  tag_1\n  jumpi\n  0x00\n  dup1\n  revert\ntag_1:\n  pop\n    /* \"SmartWallet.sol\":428:438  msg.sender */\n  caller\n    /* \"SmartWallet.sol\":420:425  owner */\n  0x00\n  dup1\n    /* \"SmartWallet.sol\":420:438  owner = msg.sender */\n  0x0100\n  exp\n  dup2\n  sload\n  dup2\n  0xffffffffffffffffffffffffffffffffffffffff\n  mul\n  not\n  and\n  swap1\n  dup4\n  0xffffffffffffffffffffffffffffffffffffffff\n  and\n  mul\n  or\n  swap1\n  sstore\n  pop\n    /* \"SmartWallet.sol\":75:3158  contract SmartWallet {... */\n  dataSize(sub_0)\n  dup1\n  dataOffset(sub_0)\n  0x00\n  codecopy\n  0x00\n  return\nstop\n\nsub_0: assembly {\n        /* \"SmartWallet.sol\":75:3158  contract SmartWallet {... */\n      mstore(0x40, 0x80)\n      jumpi(tag_1, lt(calldatasize, 0x04))\n      shr(0xe0, calldataload(0x00))\n      dup1\n      0xb6b3c86d\n      gt\n      tag_13\n      jumpi\n      dup1\n      0xb6b3c86d\n      eq\n      tag_8\n      jumpi\n      dup1\n      0xdfac031d\n      eq\n      tag_9\n      jumpi\n      dup1\n      0xf3814e74\n      eq\n      tag_10\n      jumpi\n      dup1\n      0xf8f8a912\n      eq\n      tag_11\n      jumpi\n      dup1\n      0xfb445c36\n      eq\n      tag_12\n      jumpi\n      jump(tag_2)\n    tag_13:\n      dup1\n      0x0199d925\n      eq\n      tag_3\n      jumpi\n      dup1\n      0x05ed0cef\n      eq\n      tag_4\n      jumpi\n      dup1\n      0x0ae50a39\n      eq\n      tag_5\n      jumpi\n      dup1\n      0x78c3bd71\n      eq\n      tag_6\n      jumpi\n      dup1\n      0x850a6919\n      eq\n      tag_7\n      jumpi\n      jump(tag_2)\n    tag_1:\n      jumpi(tag_2, calldatasize)\n      stop\n    tag_2:\n      0x00\n      dup1\n      revert\n        /* \"SmartWallet.sol\":1636:1906  function ViewAllowanceMember(address AllowanceAdd)... */\n    tag_3:\n      callvalue\n      dup1\n      iszero\n      tag_16\n      jumpi\n      0x00\n      dup1\n      revert\n    tag_16:\n      pop\n      tag_17\n      0x04\n      dup1\n      calldatasize\n      sub\n      dup2\n      add\n      swap1\n      tag_18\n      swap2\n      swap1\n      tag_19\n      jump\t// in\n    tag_18:\n      tag_20\n      jump\t// in\n    tag_17:\n      mload(0x40)\n      tag_21\n      swap3\n      swap2\n      swap1\n      tag_22\n      jump\t// in\n    tag_21:\n      mload(0x40)\n      dup1\n      swap2\n      sub\n      swap1\n      return\n        /* \"SmartWallet.sol\":1378:1628  function AddAllowance(address _add, uint256 amount) public {... */\n    tag_4:\n      callvalue\n      dup1\n      iszero\n      tag_23\n      jumpi\n      0x00\n      dup1\n      revert\n    tag_23:\n      pop\n      tag_24\n      0x04\n      dup1\n      calldatasize\n      sub\n      dup2\n      add\n      swap1\n      tag_25\n      swap2\n      swap1\n      tag_26\n      jump\t// in\n    tag_25:\n      tag_27\n      jump\t// in\n    tag_24:\n      stop\n        /* \"SmartWallet.sol\":3037:3118  function GetOwner() public view returns (address) {... */\n    tag_5:\n      callvalue\n      dup1\n      iszero\n      tag_28\n      jumpi\n      0x00\n      dup1\n      revert\n    tag_28:\n      pop\n      tag_29\n      tag_30\n      jump\t// in\n    tag_29:\n      mload(0x40)\n      tag_31\n      swap2\n      swap1\n      tag_32\n      jump\t// in\n    tag_31:\n      mload(0x40)\n      dup1\n      swap2\n      sub\n      swap1\n      return\n        /* \"SmartWallet.sol\":2720:2929  function EncodeString(string memory _input)... */\n    tag_6:\n      callvalue\n      dup1\n      iszero\n      tag_33\n      jumpi\n      0x00\n      dup1\n      revert\n    tag_33:\n      pop\n      tag_34\n      0x04\n      dup1\n      calldatasize\n      sub\n      dup2\n      add\n      swap1\n      tag_35\n      swap2\n      swap1\n      tag_36\n      jump\t// in\n    tag_35:\n      tag_37\n      jump\t// in\n    tag_34:\n      mload(0x40)\n      tag_38\n      swap2\n      swap1\n      tag_39\n      jump\t// in\n    tag_38:\n      mload(0x40)\n      dup1\n      swap2\n      sub\n      swap1\n      return\n        /* \"SmartWallet.sol\":1914:2712  function Transfer(... */\n    tag_7:\n      callvalue\n      dup1\n      iszero\n      tag_40\n      jumpi\n      0x00\n      dup1\n      revert\n    tag_40:\n      pop\n      tag_41\n      0x04\n      dup1\n      calldatasize\n      sub\n      dup2\n      add\n      swap1\n      tag_42\n      swap2\n      swap1\n      tag_43\n      jump\t// in\n    tag_42:\n      tag_44\n      jump\t// in\n    tag_41:\n      mload(0x40)\n      tag_45\n      swap2\n      swap1\n      tag_39\n      jump\t// in\n    tag_45:\n      mload(0x40)\n      dup1\n      swap2\n      sub\n      swap1\n      return\n        /* \"SmartWallet.sol\":2937:3029  function GetCurrentUser() public view returns (address) {... */\n    tag_8:\n      callvalue\n      dup1\n      iszero\n      tag_46\n      jumpi\n      0x00\n      dup1\n      revert\n    tag_46:\n      pop\n      tag_47\n      tag_48\n      jump\t// in\n    tag_47:\n      mload(0x40)\n      tag_49\n      swap2\n      swap1\n      tag_32\n      jump\t// in\n    tag_49:\n      mload(0x40)\n      dup1\n      swap2\n      sub\n      swap1\n      return\n        /* \"SmartWallet.sol\":1263:1370  function viewGuardian(address _add) public view returns (bool) {... */\n    tag_9:\n      callvalue\n      dup1\n      iszero\n      tag_50\n      jumpi\n      0x00\n      dup1\n      revert\n    tag_50:\n      pop\n      tag_51\n      0x04\n      dup1\n      calldatasize\n      sub\n      dup2\n      add\n      swap1\n      tag_52\n      swap2\n      swap1\n      tag_19\n      jump\t// in\n    tag_52:\n      tag_53\n      jump\t// in\n    tag_51:\n      mload(0x40)\n      tag_54\n      swap2\n      swap1\n      tag_55\n      jump\t// in\n    tag_54:\n      mload(0x40)\n      dup1\n      swap2\n      sub\n      swap1\n      return\n        /* \"SmartWallet.sol\":706:1255  function ProposeNewOwner(address _add) public {... */\n    tag_10:\n      callvalue\n      dup1\n      iszero\n      tag_56\n      jumpi\n      0x00\n      dup1\n      revert\n    tag_56:\n      pop\n      tag_57\n      0x04\n      dup1\n      calldatasize\n      sub\n      dup2\n      add\n      swap1\n      tag_58\n      swap2\n      swap1\n      tag_19\n      jump\t// in\n    tag_58:\n      tag_59\n      jump\t// in\n    tag_57:\n      stop\n        /* \"SmartWallet.sol\":599:698  function GetBalance() public view returns (uint256) {... */\n    tag_11:\n      callvalue\n      dup1\n      iszero\n      tag_60\n      jumpi\n      0x00\n      dup1\n      revert\n    tag_60:\n      pop\n      tag_61\n      tag_62\n      jump\t// in\n    tag_61:\n      mload(0x40)\n      tag_63\n      swap2\n      swap1\n      tag_64\n      jump\t// in\n    tag_63:\n      mload(0x40)\n      dup1\n      swap2\n      sub\n      swap1\n      return\n        /* \"SmartWallet.sol\":454:591  function AddGuirdian(address _add) public {... */\n    tag_12:\n      callvalue\n      dup1\n      iszero\n      tag_65\n      jumpi\n      0x00\n      dup1\n      revert\n    tag_65:\n      pop\n      tag_66\n      0x04\n      dup1\n      calldatasize\n      sub\n      dup2\n      add\n      swap1\n      tag_67\n      swap2\n      swap1\n      tag_19\n      jump\t// in\n    tag_67:\n      tag_68\n      jump\t// in\n    tag_66:\n      stop\n        /* \"SmartWallet.sol\":1636:1906  function ViewAllowanceMember(address AllowanceAdd)... */\n    tag_20:\n        /* \"SmartWallet.sol\":1735:1754  bool isAllwanceUser */\n      0x00\n        /* \"SmartWallet.sol\":1756:1779  uint256 AllowanceAmount */\n      dup1\n        /* \"SmartWallet.sol\":1814:1827  AllowanceList */\n      0x02\n        /* \"SmartWallet.sol\":1814:1841  AllowanceList[AllowanceAdd] */\n      0x00\n        /* \"SmartWallet.sol\":1828:1840  AllowanceAdd */\n      dup5\n        /* \"SmartWallet.sol\":1814:1841  AllowanceList[AllowanceAdd] */\n      0xffffffffffffffffffffffffffffffffffffffff\n      and\n      0xffffffffffffffffffffffffffffffffffffffff\n      and\n      dup2\n      mstore\n      0x20\n      add\n      swap1\n      dup2\n      mstore\n      0x20\n      add\n      0x00\n      keccak256\n      0x00\n      swap1\n      sload\n      swap1\n      0x0100\n      exp\n      swap1\n      div\n      0xff\n      and\n        /* \"SmartWallet.sol\":1797:1841  isAllwanceUser = AllowanceList[AllowanceAdd] */\n      swap2\n      pop\n        /* \"SmartWallet.sol\":1870:1884  AllowanceLimit */\n      0x01\n        /* \"SmartWallet.sol\":1870:1898  AllowanceLimit[AllowanceAdd] */\n      0x00\n        /* \"SmartWallet.sol\":1885:1897  AllowanceAdd */\n      dup5\n        /* \"SmartWallet.sol\":1870:1898  AllowanceLimit[AllowanceAdd] */\n      0xffffffffffffffffffffffffffffffffffffffff\n      and\n      0xffffffffffffffffffffffffffffffffffffffff\n      and\n      dup2\n      mstore\n      0x20\n      add\n      swap1\n      dup2\n      mstore\n      0x20\n      add\n      0x00\n      keccak256\n      sload\n        /* \"SmartWallet.sol\":1852:1898  AllowanceAmount = AllowanceLimit[AllowanceAdd] */\n      swap1\n      pop\n        /* \"SmartWallet.sol\":1636:1906  function ViewAllowanceMember(address AllowanceAdd)... */\n      swap2\n      pop\n      swap2\n      jump\t// out\n        /* \"SmartWallet.sol\":1378:1628  function AddAllowance(address _add, uint256 amount) public {... */\n    tag_27:\n        /* \"SmartWallet.sol\":1461:1471  msg.sender */\n      caller\n        /* \"SmartWallet.sol\":1452:1471  owner == msg.sender */\n      0xffffffffffffffffffffffffffffffffffffffff\n      and\n        /* \"SmartWallet.sol\":1452:1457  owner */\n      0x00\n      dup1\n      sload\n      swap1\n      0x0100\n      exp\n      swap1\n      div\n      0xffffffffffffffffffffffffffffffffffffffff\n      and\n        /* \"SmartWallet.sol\":1452:1471  owner == msg.sender */\n      0xffffffffffffffffffffffffffffffffffffffff\n      and\n      sub\n        /* \"SmartWallet.sol\":1448:1621  if (owner == msg.sender) {... */\n      tag_71\n      jumpi\n        /* \"SmartWallet.sol\":1510:1514  true */\n      0x01\n        /* \"SmartWallet.sol\":1488:1501  AllowanceList */\n      0x02\n        /* \"SmartWallet.sol\":1488:1507  AllowanceList[_add] */\n      0x00\n        /* \"SmartWallet.sol\":1502:1506  _add */\n      dup5\n        /* \"SmartWallet.sol\":1488:1507  AllowanceList[_add] */\n      0xffffffffffffffffffffffffffffffffffffffff\n      and\n      0xffffffffffffffffffffffffffffffffffffffff\n      and\n      dup2\n      mstore\n      0x20\n      add\n      swap1\n      dup2\n      mstore\n      0x20\n      add\n      0x00\n      keccak256\n      0x00\n        /* \"SmartWallet.sol\":1488:1514  AllowanceList[_add] = true */\n      0x0100\n      exp\n      dup2\n      sload\n      dup2\n      0xff\n      mul\n      not\n      and\n      swap1\n      dup4\n      iszero\n      iszero\n      mul\n      or\n      swap1\n      sstore\n      pop\n        /* \"SmartWallet.sol\":1542:1543  0 */\n      0x00\n        /* \"SmartWallet.sol\":1533:1539  amount */\n      dup2\n        /* \"SmartWallet.sol\":1533:1543  amount > 0 */\n      gt\n        /* \"SmartWallet.sol\":1529:1610  if (amount > 0) {... */\n      iszero\n      tag_72\n      jumpi\n        /* \"SmartWallet.sol\":1588:1594  amount */\n      dup1\n        /* \"SmartWallet.sol\":1564:1578  AllowanceLimit */\n      0x01\n        /* \"SmartWallet.sol\":1564:1584  AllowanceLimit[_add] */\n      0x00\n        /* \"SmartWallet.sol\":1579:1583  _add */\n      dup5\n        /* \"SmartWallet.sol\":1564:1584  AllowanceLimit[_add] */\n      0xffffffffffffffffffffffffffffffffffffffff\n      and\n      0xffffffffffffffffffffffffffffffffffffffff\n      and\n      dup2\n      mstore\n      0x20\n      add\n      swap1\n      dup2\n      mstore\n      0x20\n      add\n      0x00\n      keccak256\n      0x00\n        /* \"SmartWallet.sol\":1564:1594  AllowanceLimit[_add] += amount */\n      dup3\n      dup3\n      sload\n      tag_73\n      swap2\n      swap1\n      tag_74\n      jump\t// in\n    tag_73:\n      swap3\n      pop\n      pop\n      dup2\n      swap1\n      sstore\n      pop\n        /* \"SmartWallet.sol\":1529:1610  if (amount > 0) {... */\n    tag_72:\n        /* \"SmartWallet.sol\":1448:1621  if (owner == msg.sender) {... */\n    tag_71:\n        /* \"SmartWallet.sol\":1378:1628  function AddAllowance(address _add, uint256 amount) public {... */\n      pop\n      pop\n      jump\t// out\n        /* \"SmartWallet.sol\":3037:3118  function GetOwner() public view returns (address) {... */\n    tag_30:\n        /* \"SmartWallet.sol\":3078:3085  address */\n      0x00\n        /* \"SmartWallet.sol\":3105:3110  owner */\n      dup1\n      0x00\n      swap1\n      sload\n      swap1\n      0x0100\n      exp\n      swap1\n      div\n      0xffffffffffffffffffffffffffffffffffffffff\n      and\n        /* \"SmartWallet.sol\":3098:3110  return owner */\n      swap1\n      pop\n        /* \"SmartWallet.sol\":3037:3118  function GetOwner() public view returns (address) {... */\n      swap1\n      jump\t// out\n        /* \"SmartWallet.sol\":2720:2929  function EncodeString(string memory _input)... */\n    tag_37:\n        /* \"SmartWallet.sol\":2812:2824  bytes memory */\n      0x60\n        /* \"SmartWallet.sol\":2842:2862  bytes memory payload */\n      0x00\n        /* \"SmartWallet.sol\":2889:2895  _input */\n      dup3\n        /* \"SmartWallet.sol\":2865:2896  abi.encodeWithSignature(_input) */\n      add(0x24, mload(0x40))\n      mload(0x40)\n      0x20\n      dup2\n      dup4\n      sub\n      sub\n      dup2\n      mstore\n      swap1\n      0x40\n      mstore\n      swap1\n      mload(0x40)\n      tag_77\n      swap2\n      swap1\n      tag_78\n      jump\t// in\n    tag_77:\n      mload(0x40)\n      dup1\n      swap2\n      sub\n      swap1\n      keccak256\n      not(0xffffffffffffffffffffffffffffffffffffffffffffffffffffffff)\n      and\n      0x20\n      dup3\n      add\n      dup1\n      mload\n      0xffffffffffffffffffffffffffffffffffffffffffffffffffffffff\n      dup4\n      dup2\n      dup4\n      and\n      or\n      dup4\n      mstore\n      pop\n      pop\n      pop\n      pop\n        /* \"SmartWallet.sol\":2842:2896  bytes memory payload = abi.encodeWithSignature(_input) */\n      swap1\n      pop\n        /* \"SmartWallet.sol\":2914:2921  payload */\n      dup1\n        /* \"SmartWallet.sol\":2907:2921  return payload */\n      swap2\n      pop\n      pop\n        /* \"SmartWallet.sol\":2720:2929  function EncodeString(string memory _input)... */\n      swap2\n      swap1\n      pop\n      jump\t// out\n        /* \"SmartWallet.sol\":1914:2712  function Transfer(... */\n    tag_44:\n        /* \"SmartWallet.sol\":2033:2045  bytes memory */\n      0x60\n        /* \"SmartWallet.sol\":2071:2081  msg.sender */\n      caller\n        /* \"SmartWallet.sol\":2062:2081  owner != msg.sender */\n      0xffffffffffffffffffffffffffffffffffffffff\n      and\n        /* \"SmartWallet.sol\":2062:2067  owner */\n      0x00\n      dup1\n      sload\n      swap1\n      0x0100\n      exp\n      swap1\n      div\n      0xffffffffffffffffffffffffffffffffffffffff\n      and\n        /* \"SmartWallet.sol\":2062:2081  owner != msg.sender */\n      0xffffffffffffffffffffffffffffffffffffffff\n      and\n      eq\n        /* \"SmartWallet.sol\":2058:2435  if (owner != msg.sender) {... */\n      tag_80\n      jumpi\n        /* \"SmartWallet.sol\":2124:2137  AllowanceList */\n      0x02\n        /* \"SmartWallet.sol\":2124:2149  AllowanceList[msg.sender] */\n      0x00\n        /* \"SmartWallet.sol\":2138:2148  msg.sender */\n      caller\n        /* \"SmartWallet.sol\":2124:2149  AllowanceList[msg.sender] */\n      0xffffffffffffffffffffffffffffffffffffffff\n      and\n      0xffffffffffffffffffffffffffffffffffffffff\n      and\n      dup2\n      mstore\n      0x20\n      add\n      swap1\n      dup2\n      mstore\n      0x20\n      add\n      0x00\n      keccak256\n      0x00\n      swap1\n      sload\n      swap1\n      0x0100\n      exp\n      swap1\n      div\n      0xff\n      and\n        /* \"SmartWallet.sol\":2098:2219  require(... */\n      tag_81\n      jumpi\n      mload(0x40)\n      0x08c379a000000000000000000000000000000000000000000000000000000000\n      dup2\n      mstore\n      0x04\n      add\n      tag_82\n      swap1\n      tag_83\n      jump\t// in\n    tag_82:\n      mload(0x40)\n      dup1\n      swap2\n      sub\n      swap1\n      revert\n    tag_81:\n        /* \"SmartWallet.sol\":2289:2295  Amount */\n      dup3\n        /* \"SmartWallet.sol\":2260:2274  AllowanceLimit */\n      0x01\n        /* \"SmartWallet.sol\":2260:2286  AllowanceLimit[msg.sender] */\n      0x00\n        /* \"SmartWallet.sol\":2275:2285  msg.sender */\n      caller\n        /* \"SmartWallet.sol\":2260:2286  AllowanceLimit[msg.sender] */\n      0xffffffffffffffffffffffffffffffffffffffff\n      and\n      0xffffffffffffffffffffffffffffffffffffffff\n      and\n      dup2\n      mstore\n      0x20\n      add\n      swap1\n      dup2\n      mstore\n      0x20\n      add\n      0x00\n      keccak256\n      sload\n        /* \"SmartWallet.sol\":2260:2295  AllowanceLimit[msg.sender] > Amount */\n      gt\n        /* \"SmartWallet.sol\":2234:2372  require(... */\n      tag_84\n      jumpi\n      mload(0x40)\n      0x08c379a000000000000000000000000000000000000000000000000000000000\n      dup2\n      mstore\n      0x04\n      add\n      tag_85\n      swap1\n      tag_86\n      jump\t// in\n    tag_85:\n      mload(0x40)\n      dup1\n      swap2\n      sub\n      swap1\n      revert\n    tag_84:\n        /* \"SmartWallet.sol\":2417:2423  Amount */\n      dup3\n        /* \"SmartWallet.sol\":2387:2401  AllowanceLimit */\n      0x01\n        /* \"SmartWallet.sol\":2387:2413  AllowanceLimit[msg.sender] */\n      0x00\n        /* \"SmartWallet.sol\":2402:2412  msg.sender */\n      caller\n        /* \"SmartWallet.sol\":2387:2413  AllowanceLimit[msg.sender] */\n      0xffffffffffffffffffffffffffffffffffffffff\n      and\n      0xffffffffffffffffffffffffffffffffffffffff\n      and\n      dup2\n      mstore\n      0x20\n      add\n      swap1\n      dup2\n      mstore\n      0x20\n      add\n      0x00\n      keccak256\n      0x00\n        /* \"SmartWallet.sol\":2387:2423  AllowanceLimit[msg.sender] -= Amount */\n      dup3\n      dup3\n      sload\n      tag_87\n      swap2\n      swap1\n      tag_88\n      jump\t// in\n    tag_87:\n      swap3\n      pop\n      pop\n      dup2\n      swap1\n      sstore\n      pop\n        /* \"SmartWallet.sol\":2058:2435  if (owner != msg.sender) {... */\n    tag_80:\n        /* \"SmartWallet.sol\":2446:2457  bool result */\n      0x00\n        /* \"SmartWallet.sol\":2459:2481  bytes memory returData */\n      dup1\n        /* \"SmartWallet.sol\":2485:2488  _to */\n      dup6\n        /* \"SmartWallet.sol\":2485:2493  _to.call */\n      0xffffffffffffffffffffffffffffffffffffffff\n      and\n        /* \"SmartWallet.sol\":2501:2507  Amount */\n      dup6\n        /* \"SmartWallet.sol\":2523:2530  payload */\n      dup6\n        /* \"SmartWallet.sol\":2485:2541  _to.call{value: Amount}(... */\n      mload(0x40)\n      tag_89\n      swap2\n      swap1\n      tag_90\n      jump\t// in\n    tag_89:\n      0x00\n      mload(0x40)\n      dup1\n      dup4\n      sub\n      dup2\n      dup6\n      dup8\n      gas\n      call\n      swap3\n      pop\n      pop\n      pop\n      returndatasize\n      dup1\n      0x00\n      dup2\n      eq\n      tag_93\n      jumpi\n      mload(0x40)\n      swap2\n      pop\n      and(add(returndatasize, 0x3f), not(0x1f))\n      dup3\n      add\n      0x40\n      mstore\n      returndatasize\n      dup3\n      mstore\n      returndatasize\n      0x00\n      0x20\n      dup5\n      add\n      returndatacopy\n      jump(tag_92)\n    tag_93:\n      0x60\n      swap2\n      pop\n    tag_92:\n      pop\n        /* \"SmartWallet.sol\":2445:2541  (bool result, bytes memory returData) = _to.call{value: Amount}(... */\n      swap2\n      pop\n      swap2\n      pop\n        /* \"SmartWallet.sol\":2650:2656  result */\n      dup2\n        /* \"SmartWallet.sol\":2642:2677  require(result, \"Invalid Transfer\") */\n      tag_94\n      jumpi\n      mload(0x40)\n      0x08c379a000000000000000000000000000000000000000000000000000000000\n      dup2\n      mstore\n      0x04\n      add\n      tag_95\n      swap1\n      tag_96\n      jump\t// in\n    tag_95:\n      mload(0x40)\n      dup1\n      swap2\n      sub\n      swap1\n      revert\n    tag_94:\n        /* \"SmartWallet.sol\":2695:2704  returData */\n      dup1\n        /* \"SmartWallet.sol\":2688:2704  return returData */\n      swap3\n      pop\n      pop\n      pop\n        /* \"SmartWallet.sol\":1914:2712  function Transfer(... */\n      swap4\n      swap3\n      pop\n      pop\n      pop\n      jump\t// out\n        /* \"SmartWallet.sol\":2937:3029  function GetCurrentUser() public view returns (address) {... */\n    tag_48:\n        /* \"SmartWallet.sol\":2984:2991  address */\n      0x00\n        /* \"SmartWallet.sol\":3011:3021  msg.sender */\n      caller\n        /* \"SmartWallet.sol\":3004:3021  return msg.sender */\n      swap1\n      pop\n        /* \"SmartWallet.sol\":2937:3029  function GetCurrentUser() public view returns (address) {... */\n      swap1\n      jump\t// out\n        /* \"SmartWallet.sol\":1263:1370  function viewGuardian(address _add) public view returns (bool) {... */\n    tag_53:\n        /* \"SmartWallet.sol\":1320:1324  bool */\n      0x00\n        /* \"SmartWallet.sol\":1344:1356  GuirdianList */\n      0x03\n        /* \"SmartWallet.sol\":1344:1362  GuirdianList[_add] */\n      0x00\n        /* \"SmartWallet.sol\":1357:1361  _add */\n      dup4\n        /* \"SmartWallet.sol\":1344:1362  GuirdianList[_add] */\n      0xffffffffffffffffffffffffffffffffffffffff\n      and\n      0xffffffffffffffffffffffffffffffffffffffff\n      and\n      dup2\n      mstore\n      0x20\n      add\n      swap1\n      dup2\n      mstore\n      0x20\n      add\n      0x00\n      keccak256\n      0x00\n      swap1\n      sload\n      swap1\n      0x0100\n      exp\n      swap1\n      div\n      0xff\n      and\n        /* \"SmartWallet.sol\":1337:1362  return GuirdianList[_add] */\n      swap1\n      pop\n        /* \"SmartWallet.sol\":1263:1370  function viewGuardian(address _add) public view returns (bool) {... */\n      swap2\n      swap1\n      pop\n      jump\t// out\n        /* \"SmartWallet.sol\":706:1255  function ProposeNewOwner(address _add) public {... */\n    tag_59:\n        /* \"SmartWallet.sol\":785:797  GuirdianList */\n      0x03\n        /* \"SmartWallet.sol\":785:809  GuirdianList[msg.sender] */\n      0x00\n        /* \"SmartWallet.sol\":798:808  msg.sender */\n      caller\n        /* \"SmartWallet.sol\":785:809  GuirdianList[msg.sender] */\n      0xffffffffffffffffffffffffffffffffffffffff\n      and\n      0xffffffffffffffffffffffffffffffffffffffff\n      and\n      dup2\n      mstore\n      0x20\n      add\n      swap1\n      dup2\n      mstore\n      0x20\n      add\n      0x00\n      keccak256\n      0x00\n      swap1\n      sload\n      swap1\n      0x0100\n      exp\n      swap1\n      div\n      0xff\n      and\n        /* \"SmartWallet.sol\":763:873  require(... */\n      tag_100\n      jumpi\n      mload(0x40)\n      0x08c379a000000000000000000000000000000000000000000000000000000000\n      dup2\n      mstore\n      0x04\n      add\n      tag_101\n      swap1\n      tag_102\n      jump\t// in\n    tag_101:\n      mload(0x40)\n      dup1\n      swap2\n      sub\n      swap1\n      revert\n    tag_100:\n        /* \"SmartWallet.sol\":896:906  _nextOwner */\n      0x05\n      0x00\n      swap1\n      sload\n      swap1\n      0x0100\n      exp\n      swap1\n      div\n      0xffffffffffffffffffffffffffffffffffffffff\n      and\n        /* \"SmartWallet.sol\":888:906  _add != _nextOwner */\n      0xffffffffffffffffffffffffffffffffffffffff\n      and\n        /* \"SmartWallet.sol\":888:892  _add */\n      dup2\n        /* \"SmartWallet.sol\":888:906  _add != _nextOwner */\n      0xffffffffffffffffffffffffffffffffffffffff\n      and\n      eq\n        /* \"SmartWallet.sol\":884:989  if (_add != _nextOwner) {... */\n      tag_103\n      jumpi\n        /* \"SmartWallet.sol\":936:940  _add */\n      dup1\n        /* \"SmartWallet.sol\":923:933  _nextOwner */\n      0x05\n      0x00\n        /* \"SmartWallet.sol\":923:940  _nextOwner = _add */\n      0x0100\n      exp\n      dup2\n      sload\n      dup2\n      0xffffffffffffffffffffffffffffffffffffffff\n      mul\n      not\n      and\n      swap1\n      dup4\n      0xffffffffffffffffffffffffffffffffffffffff\n      and\n      mul\n      or\n      swap1\n      sstore\n      pop\n        /* \"SmartWallet.sol\":976:977  0 */\n      0x00\n        /* \"SmartWallet.sol\":955:973  VotedGuirdianCount */\n      0x06\n        /* \"SmartWallet.sol\":955:977  VotedGuirdianCount = 0 */\n      dup2\n      swap1\n      sstore\n      pop\n        /* \"SmartWallet.sol\":884:989  if (_add != _nextOwner) {... */\n    tag_103:\n        /* \"SmartWallet.sol\":1083:1101  VotedGuirdianCount */\n      0x06\n      0x00\n        /* \"SmartWallet.sol\":1083:1103  VotedGuirdianCount++ */\n      dup2\n      sload\n      dup1\n      swap3\n      swap2\n      swap1\n      tag_104\n      swap1\n      tag_105\n      jump\t// in\n    tag_104:\n      swap2\n      swap1\n      pop\n      sstore\n      pop\n        /* \"SmartWallet.sol\":1159:1163  true */\n      0x01\n        /* \"SmartWallet.sol\":1114:1138  AlreadyVotedGuardianList */\n      0x04\n        /* \"SmartWallet.sol\":1114:1144  AlreadyVotedGuardianList[_add] */\n      0x00\n        /* \"SmartWallet.sol\":1139:1143  _add */\n      dup4\n        /* \"SmartWallet.sol\":1114:1144  AlreadyVotedGuardianList[_add] */\n      0xffffffffffffffffffffffffffffffffffffffff\n      and\n      0xffffffffffffffffffffffffffffffffffffffff\n      and\n      dup2\n      mstore\n      0x20\n      add\n      swap1\n      dup2\n      mstore\n      0x20\n      add\n      0x00\n      keccak256\n        /* \"SmartWallet.sol\":1114:1156  AlreadyVotedGuardianList[_add][msg.sender] */\n      0x00\n        /* \"SmartWallet.sol\":1145:1155  msg.sender */\n      caller\n        /* \"SmartWallet.sol\":1114:1156  AlreadyVotedGuardianList[_add][msg.sender] */\n      0xffffffffffffffffffffffffffffffffffffffff\n      and\n      0xffffffffffffffffffffffffffffffffffffffff\n      and\n      dup2\n      mstore\n      0x20\n      add\n      swap1\n      dup2\n      mstore\n      0x20\n      add\n      0x00\n      keccak256\n      0x00\n        /* \"SmartWallet.sol\":1114:1163  AlreadyVotedGuardianList[_add][msg.sender] = true */\n      0x0100\n      exp\n      dup2\n      sload\n      dup2\n      0xff\n      mul\n      not\n      and\n      swap1\n      dup4\n      iszero\n      iszero\n      mul\n      or\n      swap1\n      sstore\n      pop\n        /* \"SmartWallet.sol\":1200:1201  3 */\n      0x03\n        /* \"SmartWallet.sol\":1178:1196  VotedGuirdianCount */\n      sload(0x06)\n        /* \"SmartWallet.sol\":1178:1201  VotedGuirdianCount == 3 */\n      sub\n        /* \"SmartWallet.sol\":1174:1248  if (VotedGuirdianCount == 3) {... */\n      tag_106\n      jumpi\n        /* \"SmartWallet.sol\":1226:1236  _nextOwner */\n      0x05\n      0x00\n      swap1\n      sload\n      swap1\n      0x0100\n      exp\n      swap1\n      div\n      0xffffffffffffffffffffffffffffffffffffffff\n      and\n        /* \"SmartWallet.sol\":1218:1223  owner */\n      0x00\n      dup1\n        /* \"SmartWallet.sol\":1218:1236  owner = _nextOwner */\n      0x0100\n      exp\n      dup2\n      sload\n      dup2\n      0xffffffffffffffffffffffffffffffffffffffff\n      mul\n      not\n      and\n      swap1\n      dup4\n      0xffffffffffffffffffffffffffffffffffffffff\n      and\n      mul\n      or\n      swap1\n      sstore\n      pop\n        /* \"SmartWallet.sol\":1174:1248  if (VotedGuirdianCount == 3) {... */\n    tag_106:\n        /* \"SmartWallet.sol\":706:1255  function ProposeNewOwner(address _add) public {... */\n      pop\n      jump\t// out\n        /* \"SmartWallet.sol\":599:698  function GetBalance() public view returns (uint256) {... */\n    tag_62:\n        /* \"SmartWallet.sol\":642:649  uint256 */\n      0x00\n        /* \"SmartWallet.sol\":669:690  address(this).balance */\n      selfbalance\n        /* \"SmartWallet.sol\":662:690  return address(this).balance */\n      swap1\n      pop\n        /* \"SmartWallet.sol\":599:698  function GetBalance() public view returns (uint256) {... */\n      swap1\n      jump\t// out\n        /* \"SmartWallet.sol\":454:591  function AddGuirdian(address _add) public {... */\n    tag_68:\n        /* \"SmartWallet.sol\":520:530  msg.sender */\n      caller\n        /* \"SmartWallet.sol\":511:530  owner == msg.sender */\n      0xffffffffffffffffffffffffffffffffffffffff\n      and\n        /* \"SmartWallet.sol\":511:516  owner */\n      0x00\n      dup1\n      sload\n      swap1\n      0x0100\n      exp\n      swap1\n      div\n      0xffffffffffffffffffffffffffffffffffffffff\n      and\n        /* \"SmartWallet.sol\":511:530  owner == msg.sender */\n      0xffffffffffffffffffffffffffffffffffffffff\n      and\n      sub\n        /* \"SmartWallet.sol\":507:584  if (owner == msg.sender) {... */\n      tag_109\n      jumpi\n        /* \"SmartWallet.sol\":568:572  true */\n      0x01\n        /* \"SmartWallet.sol\":547:559  GuirdianList */\n      0x03\n        /* \"SmartWallet.sol\":547:565  GuirdianList[_add] */\n      0x00\n        /* \"SmartWallet.sol\":560:564  _add */\n      dup4\n        /* \"SmartWallet.sol\":547:565  GuirdianList[_add] */\n      0xffffffffffffffffffffffffffffffffffffffff\n      and\n      0xffffffffffffffffffffffffffffffffffffffff\n      and\n      dup2\n      mstore\n      0x20\n      add\n      swap1\n      dup2\n      mstore\n      0x20\n      add\n      0x00\n      keccak256\n      0x00\n        /* \"SmartWallet.sol\":547:572  GuirdianList[_add] = true */\n      0x0100\n      exp\n      dup2\n      sload\n      dup2\n      0xff\n      mul\n      not\n      and\n      swap1\n      dup4\n      iszero\n      iszero\n      mul\n      or\n      swap1\n      sstore\n      pop\n        /* \"SmartWallet.sol\":507:584  if (owner == msg.sender) {... */\n    tag_109:\n        /* \"SmartWallet.sol\":454:591  function AddGuirdian(address _add) public {... */\n      pop\n      jump\t// out\n        /* \"#utility.yul\":7:82   */\n    tag_110:\n        /* \"#utility.yul\":40:46   */\n      0x00\n        /* \"#utility.yul\":73:75   */\n      0x40\n        /* \"#utility.yul\":67:76   */\n      mload\n        /* \"#utility.yul\":57:76   */\n      swap1\n      pop\n        /* \"#utility.yul\":7:82   */\n      swap1\n      jump\t// out\n        /* \"#utility.yul\":88:205   */\n    tag_111:\n        /* \"#utility.yul\":197:198   */\n      0x00\n        /* \"#utility.yul\":194:195   */\n      dup1\n        /* \"#utility.yul\":187:199   */\n      revert\n        /* \"#utility.yul\":211:328   */\n    tag_112:\n        /* \"#utility.yul\":320:321   */\n      0x00\n        /* \"#utility.yul\":317:318   */\n      dup1\n        /* \"#utility.yul\":310:322   */\n      revert\n        /* \"#utility.yul\":334:460   */\n    tag_113:\n        /* \"#utility.yul\":371:378   */\n      0x00\n        /* \"#utility.yul\":411:453   */\n      0xffffffffffffffffffffffffffffffffffffffff\n        /* \"#utility.yul\":404:409   */\n      dup3\n        /* \"#utility.yul\":400:454   */\n      and\n        /* \"#utility.yul\":389:454   */\n      swap1\n      pop\n        /* \"#utility.yul\":334:460   */\n      swap2\n      swap1\n      pop\n      jump\t// out\n        /* \"#utility.yul\":466:562   */\n    tag_114:\n        /* \"#utility.yul\":503:510   */\n      0x00\n        /* \"#utility.yul\":532:556   */\n      tag_162\n        /* \"#utility.yul\":550:555   */\n      dup3\n        /* \"#utility.yul\":532:556   */\n      tag_113\n      jump\t// in\n    tag_162:\n        /* \"#utility.yul\":521:556   */\n      swap1\n      pop\n        /* \"#utility.yul\":466:562   */\n      swap2\n      swap1\n      pop\n      jump\t// out\n        /* \"#utility.yul\":568:690   */\n    tag_115:\n        /* \"#utility.yul\":641:665   */\n      tag_164\n        /* \"#utility.yul\":659:664   */\n      dup2\n        /* \"#utility.yul\":641:665   */\n      tag_114\n      jump\t// in\n    tag_164:\n        /* \"#utility.yul\":634:639   */\n      dup2\n        /* \"#utility.yul\":631:666   */\n      eq\n        /* \"#utility.yul\":621:684   */\n      tag_165\n      jumpi\n        /* \"#utility.yul\":680:681   */\n      0x00\n        /* \"#utility.yul\":677:678   */\n      dup1\n        /* \"#utility.yul\":670:682   */\n      revert\n        /* \"#utility.yul\":621:684   */\n    tag_165:\n        /* \"#utility.yul\":568:690   */\n      pop\n      jump\t// out\n        /* \"#utility.yul\":696:835   */\n    tag_116:\n        /* \"#utility.yul\":742:747   */\n      0x00\n        /* \"#utility.yul\":780:786   */\n      dup2\n        /* \"#utility.yul\":767:787   */\n      calldataload\n        /* \"#utility.yul\":758:787   */\n      swap1\n      pop\n        /* \"#utility.yul\":796:829   */\n      tag_167\n        /* \"#utility.yul\":823:828   */\n      dup2\n        /* \"#utility.yul\":796:829   */\n      tag_115\n      jump\t// in\n    tag_167:\n        /* \"#utility.yul\":696:835   */\n      swap3\n      swap2\n      pop\n      pop\n      jump\t// out\n        /* \"#utility.yul\":841:1170   */\n    tag_19:\n        /* \"#utility.yul\":900:906   */\n      0x00\n        /* \"#utility.yul\":949:951   */\n      0x20\n        /* \"#utility.yul\":937:946   */\n      dup3\n        /* \"#utility.yul\":928:935   */\n      dup5\n        /* \"#utility.yul\":924:947   */\n      sub\n        /* \"#utility.yul\":920:952   */\n      slt\n        /* \"#utility.yul\":917:1036   */\n      iszero\n      tag_169\n      jumpi\n        /* \"#utility.yul\":955:1034   */\n      tag_170\n      tag_111\n      jump\t// in\n    tag_170:\n        /* \"#utility.yul\":917:1036   */\n    tag_169:\n        /* \"#utility.yul\":1075:1076   */\n      0x00\n        /* \"#utility.yul\":1100:1153   */\n      tag_171\n        /* \"#utility.yul\":1145:1152   */\n      dup5\n        /* \"#utility.yul\":1136:1142   */\n      dup3\n        /* \"#utility.yul\":1125:1134   */\n      dup6\n        /* \"#utility.yul\":1121:1143   */\n      add\n        /* \"#utility.yul\":1100:1153   */\n      tag_116\n      jump\t// in\n    tag_171:\n        /* \"#utility.yul\":1090:1153   */\n      swap2\n      pop\n        /* \"#utility.yul\":1046:1163   */\n      pop\n        /* \"#utility.yul\":841:1170   */\n      swap3\n      swap2\n      pop\n      pop\n      jump\t// out\n        /* \"#utility.yul\":1176:1266   */\n    tag_117:\n        /* \"#utility.yul\":1210:1217   */\n      0x00\n        /* \"#utility.yul\":1253:1258   */\n      dup2\n        /* \"#utility.yul\":1246:1259   */\n      iszero\n        /* \"#utility.yul\":1239:1260   */\n      iszero\n        /* \"#utility.yul\":1228:1260   */\n      swap1\n      pop\n        /* \"#utility.yul\":1176:1266   */\n      swap2\n      swap1\n      pop\n      jump\t// out\n        /* \"#utility.yul\":1272:1381   */\n    tag_118:\n        /* \"#utility.yul\":1353:1374   */\n      tag_174\n        /* \"#utility.yul\":1368:1373   */\n      dup2\n        /* \"#utility.yul\":1353:1374   */\n      tag_117\n      jump\t// in\n    tag_174:\n        /* \"#utility.yul\":1348:1351   */\n      dup3\n        /* \"#utility.yul\":1341:1375   */\n      mstore\n        /* \"#utility.yul\":1272:1381   */\n      pop\n      pop\n      jump\t// out\n        /* \"#utility.yul\":1387:1464   */\n    tag_119:\n        /* \"#utility.yul\":1424:1431   */\n      0x00\n        /* \"#utility.yul\":1453:1458   */\n      dup2\n        /* \"#utility.yul\":1442:1458   */\n      swap1\n      pop\n        /* \"#utility.yul\":1387:1464   */\n      swap2\n      swap1\n      pop\n      jump\t// out\n        /* \"#utility.yul\":1470:1588   */\n    tag_120:\n        /* \"#utility.yul\":1557:1581   */\n      tag_177\n        /* \"#utility.yul\":1575:1580   */\n      dup2\n        /* \"#utility.yul\":1557:1581   */\n      tag_119\n      jump\t// in\n    tag_177:\n        /* \"#utility.yul\":1552:1555   */\n      dup3\n        /* \"#utility.yul\":1545:1582   */\n      mstore\n        /* \"#utility.yul\":1470:1588   */\n      pop\n      pop\n      jump\t// out\n        /* \"#utility.yul\":1594:1914   */\n    tag_22:\n        /* \"#utility.yul\":1709:1713   */\n      0x00\n        /* \"#utility.yul\":1747:1749   */\n      0x40\n        /* \"#utility.yul\":1736:1745   */\n      dup3\n        /* \"#utility.yul\":1732:1750   */\n      add\n        /* \"#utility.yul\":1724:1750   */\n      swap1\n      pop\n        /* \"#utility.yul\":1760:1825   */\n      tag_179\n        /* \"#utility.yul\":1822:1823   */\n      0x00\n        /* \"#utility.yul\":1811:1820   */\n      dup4\n        /* \"#utility.yul\":1807:1824   */\n      add\n        /* \"#utility.yul\":1798:1804   */\n      dup6\n        /* \"#utility.yul\":1760:1825   */\n      tag_118\n      jump\t// in\n    tag_179:\n        /* \"#utility.yul\":1835:1907   */\n      tag_180\n        /* \"#utility.yul\":1903:1905   */\n      0x20\n        /* \"#utility.yul\":1892:1901   */\n      dup4\n        /* \"#utility.yul\":1888:1906   */\n      add\n        /* \"#utility.yul\":1879:1885   */\n      dup5\n        /* \"#utility.yul\":1835:1907   */\n      tag_120\n      jump\t// in\n    tag_180:\n        /* \"#utility.yul\":1594:1914   */\n      swap4\n      swap3\n      pop\n      pop\n      pop\n      jump\t// out\n        /* \"#utility.yul\":1920:2042   */\n    tag_121:\n        /* \"#utility.yul\":1993:2017   */\n      tag_182\n        /* \"#utility.yul\":2011:2016   */\n      dup2\n        /* \"#utility.yul\":1993:2017   */\n      tag_119\n      jump\t// in\n    tag_182:\n        /* \"#utility.yul\":1986:1991   */\n      dup2\n        /* \"#utility.yul\":1983:2018   */\n      eq\n        /* \"#utility.yul\":1973:2036   */\n      tag_183\n      jumpi\n        /* \"#utility.yul\":2032:2033   */\n      0x00\n        /* \"#utility.yul\":2029:2030   */\n      dup1\n        /* \"#utility.yul\":2022:2034   */\n      revert\n        /* \"#utility.yul\":1973:2036   */\n    tag_183:\n        /* \"#utility.yul\":1920:2042   */\n      pop\n      jump\t// out\n        /* \"#utility.yul\":2048:2187   */\n    tag_122:\n        /* \"#utility.yul\":2094:2099   */\n      0x00\n        /* \"#utility.yul\":2132:2138   */\n      dup2\n        /* \"#utility.yul\":2119:2139   */\n      calldataload\n        /* \"#utility.yul\":2110:2139   */\n      swap1\n      pop\n        /* \"#utility.yul\":2148:2181   */\n      tag_185\n        /* \"#utility.yul\":2175:2180   */\n      dup2\n        /* \"#utility.yul\":2148:2181   */\n      tag_121\n      jump\t// in\n    tag_185:\n        /* \"#utility.yul\":2048:2187   */\n      swap3\n      swap2\n      pop\n      pop\n      jump\t// out\n        /* \"#utility.yul\":2193:2667   */\n    tag_26:\n        /* \"#utility.yul\":2261:2267   */\n      0x00\n        /* \"#utility.yul\":2269:2275   */\n      dup1\n        /* \"#utility.yul\":2318:2320   */\n      0x40\n        /* \"#utility.yul\":2306:2315   */\n      dup4\n        /* \"#utility.yul\":2297:2304   */\n      dup6\n        /* \"#utility.yul\":2293:2316   */\n      sub\n        /* \"#utility.yul\":2289:2321   */\n      slt\n        /* \"#utility.yul\":2286:2405   */\n      iszero\n      tag_187\n      jumpi\n        /* \"#utility.yul\":2324:2403   */\n      tag_188\n      tag_111\n      jump\t// in\n    tag_188:\n        /* \"#utility.yul\":2286:2405   */\n    tag_187:\n        /* \"#utility.yul\":2444:2445   */\n      0x00\n        /* \"#utility.yul\":2469:2522   */\n      tag_189\n        /* \"#utility.yul\":2514:2521   */\n      dup6\n        /* \"#utility.yul\":2505:2511   */\n      dup3\n        /* \"#utility.yul\":2494:2503   */\n      dup7\n        /* \"#utility.yul\":2490:2512   */\n      add\n        /* \"#utility.yul\":2469:2522   */\n      tag_116\n      jump\t// in\n    tag_189:\n        /* \"#utility.yul\":2459:2522   */\n      swap3\n      pop\n        /* \"#utility.yul\":2415:2532   */\n      pop\n        /* \"#utility.yul\":2571:2573   */\n      0x20\n        /* \"#utility.yul\":2597:2650   */\n      tag_190\n        /* \"#utility.yul\":2642:2649   */\n      dup6\n        /* \"#utility.yul\":2633:2639   */\n      dup3\n        /* \"#utility.yul\":2622:2631   */\n      dup7\n        /* \"#utility.yul\":2618:2640   */\n      add\n        /* \"#utility.yul\":2597:2650   */\n      tag_122\n      jump\t// in\n    tag_190:\n        /* \"#utility.yul\":2587:2650   */\n      swap2\n      pop\n        /* \"#utility.yul\":2542:2660   */\n      pop\n        /* \"#utility.yul\":2193:2667   */\n      swap3\n      pop\n      swap3\n      swap1\n      pop\n      jump\t// out\n        /* \"#utility.yul\":2673:2791   */\n    tag_123:\n        /* \"#utility.yul\":2760:2784   */\n      tag_192\n        /* \"#utility.yul\":2778:2783   */\n      dup2\n        /* \"#utility.yul\":2760:2784   */\n      tag_114\n      jump\t// in\n    tag_192:\n        /* \"#utility.yul\":2755:2758   */\n      dup3\n        /* \"#utility.yul\":2748:2785   */\n      mstore\n        /* \"#utility.yul\":2673:2791   */\n      pop\n      pop\n      jump\t// out\n        /* \"#utility.yul\":2797:3019   */\n    tag_32:\n        /* \"#utility.yul\":2890:2894   */\n      0x00\n        /* \"#utility.yul\":2928:2930   */\n      0x20\n        /* \"#utility.yul\":2917:2926   */\n      dup3\n        /* \"#utility.yul\":2913:2931   */\n      add\n        /* \"#utility.yul\":2905:2931   */\n      swap1\n      pop\n        /* \"#utility.yul\":2941:3012   */\n      tag_194\n        /* \"#utility.yul\":3009:3010   */\n      0x00\n        /* \"#utility.yul\":2998:3007   */\n      dup4\n        /* \"#utility.yul\":2994:3011   */\n      add\n        /* \"#utility.yul\":2985:2991   */\n      dup5\n        /* \"#utility.yul\":2941:3012   */\n      tag_123\n      jump\t// in\n    tag_194:\n        /* \"#utility.yul\":2797:3019   */\n      swap3\n      swap2\n      pop\n      pop\n      jump\t// out\n        /* \"#utility.yul\":3025:3142   */\n    tag_124:\n        /* \"#utility.yul\":3134:3135   */\n      0x00\n        /* \"#utility.yul\":3131:3132   */\n      dup1\n        /* \"#utility.yul\":3124:3136   */\n      revert\n        /* \"#utility.yul\":3148:3265   */\n    tag_125:\n        /* \"#utility.yul\":3257:3258   */\n      0x00\n        /* \"#utility.yul\":3254:3255   */\n      dup1\n        /* \"#utility.yul\":3247:3259   */\n      revert\n        /* \"#utility.yul\":3271:3373   */\n    tag_126:\n        /* \"#utility.yul\":3312:3318   */\n      0x00\n        /* \"#utility.yul\":3363:3365   */\n      0x1f\n        /* \"#utility.yul\":3359:3366   */\n      not\n        /* \"#utility.yul\":3354:3356   */\n      0x1f\n        /* \"#utility.yul\":3347:3352   */\n      dup4\n        /* \"#utility.yul\":3343:3357   */\n      add\n        /* \"#utility.yul\":3339:3367   */\n      and\n        /* \"#utility.yul\":3329:3367   */\n      swap1\n      pop\n        /* \"#utility.yul\":3271:3373   */\n      swap2\n      swap1\n      pop\n      jump\t// out\n        /* \"#utility.yul\":3379:3559   */\n    tag_127:\n        /* \"#utility.yul\":3427:3504   */\n      0x4e487b7100000000000000000000000000000000000000000000000000000000\n        /* \"#utility.yul\":3424:3425   */\n      0x00\n        /* \"#utility.yul\":3417:3505   */\n      mstore\n        /* \"#utility.yul\":3524:3528   */\n      0x41\n        /* \"#utility.yul\":3521:3522   */\n      0x04\n        /* \"#utility.yul\":3514:3529   */\n      mstore\n        /* \"#utility.yul\":3548:3552   */\n      0x24\n        /* \"#utility.yul\":3545:3546   */\n      0x00\n        /* \"#utility.yul\":3538:3553   */\n      revert\n        /* \"#utility.yul\":3565:3846   */\n    tag_128:\n        /* \"#utility.yul\":3648:3675   */\n      tag_200\n        /* \"#utility.yul\":3670:3674   */\n      dup3\n        /* \"#utility.yul\":3648:3675   */\n      tag_126\n      jump\t// in\n    tag_200:\n        /* \"#utility.yul\":3640:3646   */\n      dup2\n        /* \"#utility.yul\":3636:3676   */\n      add\n        /* \"#utility.yul\":3778:3784   */\n      dup2\n        /* \"#utility.yul\":3766:3776   */\n      dup2\n        /* \"#utility.yul\":3763:3785   */\n      lt\n        /* \"#utility.yul\":3742:3760   */\n      0xffffffffffffffff\n        /* \"#utility.yul\":3730:3740   */\n      dup3\n        /* \"#utility.yul\":3727:3761   */\n      gt\n        /* \"#utility.yul\":3724:3786   */\n      or\n        /* \"#utility.yul\":3721:3809   */\n      iszero\n      tag_201\n      jumpi\n        /* \"#utility.yul\":3789:3807   */\n      tag_202\n      tag_127\n      jump\t// in\n    tag_202:\n        /* \"#utility.yul\":3721:3809   */\n    tag_201:\n        /* \"#utility.yul\":3829:3839   */\n      dup1\n        /* \"#utility.yul\":3825:3827   */\n      0x40\n        /* \"#utility.yul\":3818:3840   */\n      mstore\n        /* \"#utility.yul\":3608:3846   */\n      pop\n        /* \"#utility.yul\":3565:3846   */\n      pop\n      pop\n      jump\t// out\n        /* \"#utility.yul\":3852:3981   */\n    tag_129:\n        /* \"#utility.yul\":3886:3892   */\n      0x00\n        /* \"#utility.yul\":3913:3933   */\n      tag_204\n      tag_110\n      jump\t// in\n    tag_204:\n        /* \"#utility.yul\":3903:3933   */\n      swap1\n      pop\n        /* \"#utility.yul\":3942:3975   */\n      tag_205\n        /* \"#utility.yul\":3970:3974   */\n      dup3\n        /* \"#utility.yul\":3962:3968   */\n      dup3\n        /* \"#utility.yul\":3942:3975   */\n      tag_128\n      jump\t// in\n    tag_205:\n        /* \"#utility.yul\":3852:3981   */\n      swap2\n      swap1\n      pop\n      jump\t// out\n        /* \"#utility.yul\":3987:4295   */\n    tag_130:\n        /* \"#utility.yul\":4049:4053   */\n      0x00\n        /* \"#utility.yul\":4139:4157   */\n      0xffffffffffffffff\n        /* \"#utility.yul\":4131:4137   */\n      dup3\n        /* \"#utility.yul\":4128:4158   */\n      gt\n        /* \"#utility.yul\":4125:4181   */\n      iszero\n      tag_207\n      jumpi\n        /* \"#utility.yul\":4161:4179   */\n      tag_208\n      tag_127\n      jump\t// in\n    tag_208:\n        /* \"#utility.yul\":4125:4181   */\n    tag_207:\n        /* \"#utility.yul\":4199:4228   */\n      tag_209\n        /* \"#utility.yul\":4221:4227   */\n      dup3\n        /* \"#utility.yul\":4199:4228   */\n      tag_126\n      jump\t// in\n    tag_209:\n        /* \"#utility.yul\":4191:4228   */\n      swap1\n      pop\n        /* \"#utility.yul\":4283:4287   */\n      0x20\n        /* \"#utility.yul\":4277:4281   */\n      dup2\n        /* \"#utility.yul\":4273:4288   */\n      add\n        /* \"#utility.yul\":4265:4288   */\n      swap1\n      pop\n        /* \"#utility.yul\":3987:4295   */\n      swap2\n      swap1\n      pop\n      jump\t// out\n        /* \"#utility.yul\":4301:4447   */\n    tag_131:\n        /* \"#utility.yul\":4398:4404   */\n      dup3\n        /* \"#utility.yul\":4393:4396   */\n      dup2\n        /* \"#utility.yul\":4388:4391   */\n      dup4\n        /* \"#utility.yul\":4375:4405   */\n      calldatacopy\n        /* \"#utility.yul\":4439:4440   */\n      0x00\n        /* \"#utility.yul\":4430:4436   */\n      dup4\n        /* \"#utility.yul\":4425:4428   */\n      dup4\n        /* \"#utility.yul\":4421:4437   */\n      add\n        /* \"#utility.yul\":4414:4441   */\n      mstore\n        /* \"#utility.yul\":4301:4447   */\n      pop\n      pop\n      pop\n      jump\t// out\n        /* \"#utility.yul\":4453:4878   */\n    tag_132:\n        /* \"#utility.yul\":4531:4536   */\n      0x00\n        /* \"#utility.yul\":4556:4622   */\n      tag_212\n        /* \"#utility.yul\":4572:4621   */\n      tag_213\n        /* \"#utility.yul\":4614:4620   */\n      dup5\n        /* \"#utility.yul\":4572:4621   */\n      tag_130\n      jump\t// in\n    tag_213:\n        /* \"#utility.yul\":4556:4622   */\n      tag_129\n      jump\t// in\n    tag_212:\n        /* \"#utility.yul\":4547:4622   */\n      swap1\n      pop\n        /* \"#utility.yul\":4645:4651   */\n      dup3\n        /* \"#utility.yul\":4638:4643   */\n      dup2\n        /* \"#utility.yul\":4631:4652   */\n      mstore\n        /* \"#utility.yul\":4683:4687   */\n      0x20\n        /* \"#utility.yul\":4676:4681   */\n      dup2\n        /* \"#utility.yul\":4672:4688   */\n      add\n        /* \"#utility.yul\":4721:4724   */\n      dup5\n        /* \"#utility.yul\":4712:4718   */\n      dup5\n        /* \"#utility.yul\":4707:4710   */\n      dup5\n        /* \"#utility.yul\":4703:4719   */\n      add\n        /* \"#utility.yul\":4700:4725   */\n      gt\n        /* \"#utility.yul\":4697:4809   */\n      iszero\n      tag_214\n      jumpi\n        /* \"#utility.yul\":4728:4807   */\n      tag_215\n      tag_125\n      jump\t// in\n    tag_215:\n        /* \"#utility.yul\":4697:4809   */\n    tag_214:\n        /* \"#utility.yul\":4818:4872   */\n      tag_216\n        /* \"#utility.yul\":4865:4871   */\n      dup5\n        /* \"#utility.yul\":4860:4863   */\n      dup3\n        /* \"#utility.yul\":4855:4858   */\n      dup6\n        /* \"#utility.yul\":4818:4872   */\n      tag_131\n      jump\t// in\n    tag_216:\n        /* \"#utility.yul\":4537:4878   */\n      pop\n        /* \"#utility.yul\":4453:4878   */\n      swap4\n      swap3\n      pop\n      pop\n      pop\n      jump\t// out\n        /* \"#utility.yul\":4898:5238   */\n    tag_133:\n        /* \"#utility.yul\":4954:4959   */\n      0x00\n        /* \"#utility.yul\":5003:5006   */\n      dup3\n        /* \"#utility.yul\":4996:5000   */\n      0x1f\n        /* \"#utility.yul\":4988:4994   */\n      dup4\n        /* \"#utility.yul\":4984:5001   */\n      add\n        /* \"#utility.yul\":4980:5007   */\n      slt\n        /* \"#utility.yul\":4970:5092   */\n      tag_218\n      jumpi\n        /* \"#utility.yul\":5011:5090   */\n      tag_219\n      tag_124\n      jump\t// in\n    tag_219:\n        /* \"#utility.yul\":4970:5092   */\n    tag_218:\n        /* \"#utility.yul\":5128:5134   */\n      dup2\n        /* \"#utility.yul\":5115:5135   */\n      calldataload\n        /* \"#utility.yul\":5153:5232   */\n      tag_220\n        /* \"#utility.yul\":5228:5231   */\n      dup5\n        /* \"#utility.yul\":5220:5226   */\n      dup3\n        /* \"#utility.yul\":5213:5217   */\n      0x20\n        /* \"#utility.yul\":5205:5211   */\n      dup7\n        /* \"#utility.yul\":5201:5218   */\n      add\n        /* \"#utility.yul\":5153:5232   */\n      tag_132\n      jump\t// in\n    tag_220:\n        /* \"#utility.yul\":5144:5232   */\n      swap2\n      pop\n        /* \"#utility.yul\":4960:5238   */\n      pop\n        /* \"#utility.yul\":4898:5238   */\n      swap3\n      swap2\n      pop\n      pop\n      jump\t// out\n        /* \"#utility.yul\":5244:5753   */\n    tag_36:\n        /* \"#utility.yul\":5313:5319   */\n      0x00\n        /* \"#utility.yul\":5362:5364   */\n      0x20\n        /* \"#utility.yul\":5350:5359   */\n      dup3\n        /* \"#utility.yul\":5341:5348   */\n      dup5\n        /* \"#utility.yul\":5337:5360   */\n      sub\n        /* \"#utility.yul\":5333:5365   */\n      slt\n        /* \"#utility.yul\":5330:5449   */\n      iszero\n      tag_222\n      jumpi\n        /* \"#utility.yul\":5368:5447   */\n      tag_223\n      tag_111\n      jump\t// in\n    tag_223:\n        /* \"#utility.yul\":5330:5449   */\n    tag_222:\n        /* \"#utility.yul\":5516:5517   */\n      0x00\n        /* \"#utility.yul\":5505:5514   */\n      dup3\n        /* \"#utility.yul\":5501:5518   */\n      add\n        /* \"#utility.yul\":5488:5519   */\n      calldataload\n        /* \"#utility.yul\":5546:5564   */\n      0xffffffffffffffff\n        /* \"#utility.yul\":5538:5544   */\n      dup2\n        /* \"#utility.yul\":5535:5565   */\n      gt\n        /* \"#utility.yul\":5532:5649   */\n      iszero\n      tag_224\n      jumpi\n        /* \"#utility.yul\":5568:5647   */\n      tag_225\n      tag_112\n      jump\t// in\n    tag_225:\n        /* \"#utility.yul\":5532:5649   */\n    tag_224:\n        /* \"#utility.yul\":5673:5736   */\n      tag_226\n        /* \"#utility.yul\":5728:5735   */\n      dup5\n        /* \"#utility.yul\":5719:5725   */\n      dup3\n        /* \"#utility.yul\":5708:5717   */\n      dup6\n        /* \"#utility.yul\":5704:5726   */\n      add\n        /* \"#utility.yul\":5673:5736   */\n      tag_133\n      jump\t// in\n    tag_226:\n        /* \"#utility.yul\":5663:5736   */\n      swap2\n      pop\n        /* \"#utility.yul\":5459:5746   */\n      pop\n        /* \"#utility.yul\":5244:5753   */\n      swap3\n      swap2\n      pop\n      pop\n      jump\t// out\n        /* \"#utility.yul\":5759:5857   */\n    tag_134:\n        /* \"#utility.yul\":5810:5816   */\n      0x00\n        /* \"#utility.yul\":5844:5849   */\n      dup2\n        /* \"#utility.yul\":5838:5850   */\n      mload\n        /* \"#utility.yul\":5828:5850   */\n      swap1\n      pop\n        /* \"#utility.yul\":5759:5857   */\n      swap2\n      swap1\n      pop\n      jump\t// out\n        /* \"#utility.yul\":5863:6031   */\n    tag_135:\n        /* \"#utility.yul\":5946:5957   */\n      0x00\n        /* \"#utility.yul\":5980:5986   */\n      dup3\n        /* \"#utility.yul\":5975:5978   */\n      dup3\n        /* \"#utility.yul\":5968:5987   */\n      mstore\n        /* \"#utility.yul\":6020:6024   */\n      0x20\n        /* \"#utility.yul\":6015:6018   */\n      dup3\n        /* \"#utility.yul\":6011:6025   */\n      add\n        /* \"#utility.yul\":5996:6025   */\n      swap1\n      pop\n        /* \"#utility.yul\":5863:6031   */\n      swap3\n      swap2\n      pop\n      pop\n      jump\t// out\n        /* \"#utility.yul\":6037:6283   */\n    tag_136:\n        /* \"#utility.yul\":6118:6119   */\n      0x00\n        /* \"#utility.yul\":6128:6241   */\n    tag_230:\n        /* \"#utility.yul\":6142:6148   */\n      dup4\n        /* \"#utility.yul\":6139:6140   */\n      dup2\n        /* \"#utility.yul\":6136:6149   */\n      lt\n        /* \"#utility.yul\":6128:6241   */\n      iszero\n      tag_232\n      jumpi\n        /* \"#utility.yul\":6227:6228   */\n      dup1\n        /* \"#utility.yul\":6222:6225   */\n      dup3\n        /* \"#utility.yul\":6218:6229   */\n      add\n        /* \"#utility.yul\":6212:6230   */\n      mload\n        /* \"#utility.yul\":6208:6209   */\n      dup2\n        /* \"#utility.yul\":6203:6206   */\n      dup5\n        /* \"#utility.yul\":6199:6210   */\n      add\n        /* \"#utility.yul\":6192:6231   */\n      mstore\n        /* \"#utility.yul\":6164:6166   */\n      0x20\n        /* \"#utility.yul\":6161:6162   */\n      dup2\n        /* \"#utility.yul\":6157:6167   */\n      add\n        /* \"#utility.yul\":6152:6167   */\n      swap1\n      pop\n        /* \"#utility.yul\":6128:6241   */\n      jump(tag_230)\n    tag_232:\n        /* \"#utility.yul\":6275:6276   */\n      0x00\n        /* \"#utility.yul\":6266:6272   */\n      dup5\n        /* \"#utility.yul\":6261:6264   */\n      dup5\n        /* \"#utility.yul\":6257:6273   */\n      add\n        /* \"#utility.yul\":6250:6277   */\n      mstore\n        /* \"#utility.yul\":6099:6283   */\n      pop\n        /* \"#utility.yul\":6037:6283   */\n      pop\n      pop\n      pop\n      jump\t// out\n        /* \"#utility.yul\":6289:6662   */\n    tag_137:\n        /* \"#utility.yul\":6375:6378   */\n      0x00\n        /* \"#utility.yul\":6403:6441   */\n      tag_234\n        /* \"#utility.yul\":6435:6440   */\n      dup3\n        /* \"#utility.yul\":6403:6441   */\n      tag_134\n      jump\t// in\n    tag_234:\n        /* \"#utility.yul\":6457:6527   */\n      tag_235\n        /* \"#utility.yul\":6520:6526   */\n      dup2\n        /* \"#utility.yul\":6515:6518   */\n      dup6\n        /* \"#utility.yul\":6457:6527   */\n      tag_135\n      jump\t// in\n    tag_235:\n        /* \"#utility.yul\":6450:6527   */\n      swap4\n      pop\n        /* \"#utility.yul\":6536:6601   */\n      tag_236\n        /* \"#utility.yul\":6594:6600   */\n      dup2\n        /* \"#utility.yul\":6589:6592   */\n      dup6\n        /* \"#utility.yul\":6582:6586   */\n      0x20\n        /* \"#utility.yul\":6575:6580   */\n      dup7\n        /* \"#utility.yul\":6571:6587   */\n      add\n        /* \"#utility.yul\":6536:6601   */\n      tag_136\n      jump\t// in\n    tag_236:\n        /* \"#utility.yul\":6626:6655   */\n      tag_237\n        /* \"#utility.yul\":6648:6654   */\n      dup2\n        /* \"#utility.yul\":6626:6655   */\n      tag_126\n      jump\t// in\n    tag_237:\n        /* \"#utility.yul\":6621:6624   */\n      dup5\n        /* \"#utility.yul\":6617:6656   */\n      add\n        /* \"#utility.yul\":6610:6656   */\n      swap2\n      pop\n        /* \"#utility.yul\":6379:6662   */\n      pop\n        /* \"#utility.yul\":6289:6662   */\n      swap3\n      swap2\n      pop\n      pop\n      jump\t// out\n        /* \"#utility.yul\":6668:6977   */\n    tag_39:\n        /* \"#utility.yul\":6779:6783   */\n      0x00\n        /* \"#utility.yul\":6817:6819   */\n      0x20\n        /* \"#utility.yul\":6806:6815   */\n      dup3\n        /* \"#utility.yul\":6802:6820   */\n      add\n        /* \"#utility.yul\":6794:6820   */\n      swap1\n      pop\n        /* \"#utility.yul\":6866:6875   */\n      dup2\n        /* \"#utility.yul\":6860:6864   */\n      dup2\n        /* \"#utility.yul\":6856:6876   */\n      sub\n        /* \"#utility.yul\":6852:6853   */\n      0x00\n        /* \"#utility.yul\":6841:6850   */\n      dup4\n        /* \"#utility.yul\":6837:6854   */\n      add\n        /* \"#utility.yul\":6830:6877   */\n      mstore\n        /* \"#utility.yul\":6894:6970   */\n      tag_239\n        /* \"#utility.yul\":6965:6969   */\n      dup2\n        /* \"#utility.yul\":6956:6962   */\n      dup5\n        /* \"#utility.yul\":6894:6970   */\n      tag_137\n      jump\t// in\n    tag_239:\n        /* \"#utility.yul\":6886:6970   */\n      swap1\n      pop\n        /* \"#utility.yul\":6668:6977   */\n      swap3\n      swap2\n      pop\n      pop\n      jump\t// out\n        /* \"#utility.yul\":6983:7290   */\n    tag_138:\n        /* \"#utility.yul\":7044:7048   */\n      0x00\n        /* \"#utility.yul\":7134:7152   */\n      0xffffffffffffffff\n        /* \"#utility.yul\":7126:7132   */\n      dup3\n        /* \"#utility.yul\":7123:7153   */\n      gt\n        /* \"#utility.yul\":7120:7176   */\n      iszero\n      tag_241\n      jumpi\n        /* \"#utility.yul\":7156:7174   */\n      tag_242\n      tag_127\n      jump\t// in\n    tag_242:\n        /* \"#utility.yul\":7120:7176   */\n    tag_241:\n        /* \"#utility.yul\":7194:7223   */\n      tag_243\n        /* \"#utility.yul\":7216:7222   */\n      dup3\n        /* \"#utility.yul\":7194:7223   */\n      tag_126\n      jump\t// in\n    tag_243:\n        /* \"#utility.yul\":7186:7223   */\n      swap1\n      pop\n        /* \"#utility.yul\":7278:7282   */\n      0x20\n        /* \"#utility.yul\":7272:7276   */\n      dup2\n        /* \"#utility.yul\":7268:7283   */\n      add\n        /* \"#utility.yul\":7260:7283   */\n      swap1\n      pop\n        /* \"#utility.yul\":6983:7290   */\n      swap2\n      swap1\n      pop\n      jump\t// out\n        /* \"#utility.yul\":7296:7719   */\n    tag_139:\n        /* \"#utility.yul\":7373:7378   */\n      0x00\n        /* \"#utility.yul\":7398:7463   */\n      tag_245\n        /* \"#utility.yul\":7414:7462   */\n      tag_246\n        /* \"#utility.yul\":7455:7461   */\n      dup5\n        /* \"#utility.yul\":7414:7462   */\n      tag_138\n      jump\t// in\n    tag_246:\n        /* \"#utility.yul\":7398:7463   */\n      tag_129\n      jump\t// in\n    tag_245:\n        /* \"#utility.yul\":7389:7463   */\n      swap1\n      pop\n        /* \"#utility.yul\":7486:7492   */\n      dup3\n        /* \"#utility.yul\":7479:7484   */\n      dup2\n        /* \"#utility.yul\":7472:7493   */\n      mstore\n        /* \"#utility.yul\":7524:7528   */\n      0x20\n        /* \"#utility.yul\":7517:7522   */\n      dup2\n        /* \"#utility.yul\":7513:7529   */\n      add\n        /* \"#utility.yul\":7562:7565   */\n      dup5\n        /* \"#utility.yul\":7553:7559   */\n      dup5\n        /* \"#utility.yul\":7548:7551   */\n      dup5\n        /* \"#utility.yul\":7544:7560   */\n      add\n        /* \"#utility.yul\":7541:7566   */\n      gt\n        /* \"#utility.yul\":7538:7650   */\n      iszero\n      tag_247\n      jumpi\n        /* \"#utility.yul\":7569:7648   */\n      tag_248\n      tag_125\n      jump\t// in\n    tag_248:\n        /* \"#utility.yul\":7538:7650   */\n    tag_247:\n        /* \"#utility.yul\":7659:7713   */\n      tag_249\n        /* \"#utility.yul\":7706:7712   */\n      dup5\n        /* \"#utility.yul\":7701:7704   */\n      dup3\n        /* \"#utility.yul\":7696:7699   */\n      dup6\n        /* \"#utility.yul\":7659:7713   */\n      tag_131\n      jump\t// in\n    tag_249:\n        /* \"#utility.yul\":7379:7719   */\n      pop\n        /* \"#utility.yul\":7296:7719   */\n      swap4\n      swap3\n      pop\n      pop\n      pop\n      jump\t// out\n        /* \"#utility.yul\":7738:8076   */\n    tag_140:\n        /* \"#utility.yul\":7793:7798   */\n      0x00\n        /* \"#utility.yul\":7842:7845   */\n      dup3\n        /* \"#utility.yul\":7835:7839   */\n      0x1f\n        /* \"#utility.yul\":7827:7833   */\n      dup4\n        /* \"#utility.yul\":7823:7840   */\n      add\n        /* \"#utility.yul\":7819:7846   */\n      slt\n        /* \"#utility.yul\":7809:7931   */\n      tag_251\n      jumpi\n        /* \"#utility.yul\":7850:7929   */\n      tag_252\n      tag_124\n      jump\t// in\n    tag_252:\n        /* \"#utility.yul\":7809:7931   */\n    tag_251:\n        /* \"#utility.yul\":7967:7973   */\n      dup2\n        /* \"#utility.yul\":7954:7974   */\n      calldataload\n        /* \"#utility.yul\":7992:8070   */\n      tag_253\n        /* \"#utility.yul\":8066:8069   */\n      dup5\n        /* \"#utility.yul\":8058:8064   */\n      dup3\n        /* \"#utility.yul\":8051:8055   */\n      0x20\n        /* \"#utility.yul\":8043:8049   */\n      dup7\n        /* \"#utility.yul\":8039:8056   */\n      add\n        /* \"#utility.yul\":7992:8070   */\n      tag_139\n      jump\t// in\n    tag_253:\n        /* \"#utility.yul\":7983:8070   */\n      swap2\n      pop\n        /* \"#utility.yul\":7799:8076   */\n      pop\n        /* \"#utility.yul\":7738:8076   */\n      swap3\n      swap2\n      pop\n      pop\n      jump\t// out\n        /* \"#utility.yul\":8082:8879   */\n    tag_43:\n        /* \"#utility.yul\":8168:8174   */\n      0x00\n        /* \"#utility.yul\":8176:8182   */\n      dup1\n        /* \"#utility.yul\":8184:8190   */\n      0x00\n        /* \"#utility.yul\":8233:8235   */\n      0x60\n        /* \"#utility.yul\":8221:8230   */\n      dup5\n        /* \"#utility.yul\":8212:8219   */\n      dup7\n        /* \"#utility.yul\":8208:8231   */\n      sub\n        /* \"#utility.yul\":8204:8236   */\n      slt\n        /* \"#utility.yul\":8201:8320   */\n      iszero\n      tag_255\n      jumpi\n        /* \"#utility.yul\":8239:8318   */\n      tag_256\n      tag_111\n      jump\t// in\n    tag_256:\n        /* \"#utility.yul\":8201:8320   */\n    tag_255:\n        /* \"#utility.yul\":8359:8360   */\n      0x00\n        /* \"#utility.yul\":8384:8437   */\n      tag_257\n        /* \"#utility.yul\":8429:8436   */\n      dup7\n        /* \"#utility.yul\":8420:8426   */\n      dup3\n        /* \"#utility.yul\":8409:8418   */\n      dup8\n        /* \"#utility.yul\":8405:8427   */\n      add\n        /* \"#utility.yul\":8384:8437   */\n      tag_116\n      jump\t// in\n    tag_257:\n        /* \"#utility.yul\":8374:8437   */\n      swap4\n      pop\n        /* \"#utility.yul\":8330:8447   */\n      pop\n        /* \"#utility.yul\":8486:8488   */\n      0x20\n        /* \"#utility.yul\":8512:8565   */\n      tag_258\n        /* \"#utility.yul\":8557:8564   */\n      dup7\n        /* \"#utility.yul\":8548:8554   */\n      dup3\n        /* \"#utility.yul\":8537:8546   */\n      dup8\n        /* \"#utility.yul\":8533:8555   */\n      add\n        /* \"#utility.yul\":8512:8565   */\n      tag_122\n      jump\t// in\n    tag_258:\n        /* \"#utility.yul\":8502:8565   */\n      swap3\n      pop\n        /* \"#utility.yul\":8457:8575   */\n      pop\n        /* \"#utility.yul\":8642:8644   */\n      0x40\n        /* \"#utility.yul\":8631:8640   */\n      dup5\n        /* \"#utility.yul\":8627:8645   */\n      add\n        /* \"#utility.yul\":8614:8646   */\n      calldataload\n        /* \"#utility.yul\":8673:8691   */\n      0xffffffffffffffff\n        /* \"#utility.yul\":8665:8671   */\n      dup2\n        /* \"#utility.yul\":8662:8692   */\n      gt\n        /* \"#utility.yul\":8659:8776   */\n      iszero\n      tag_259\n      jumpi\n        /* \"#utility.yul\":8695:8774   */\n      tag_260\n      tag_112\n      jump\t// in\n    tag_260:\n        /* \"#utility.yul\":8659:8776   */\n    tag_259:\n        /* \"#utility.yul\":8800:8862   */\n      tag_261\n        /* \"#utility.yul\":8854:8861   */\n      dup7\n        /* \"#utility.yul\":8845:8851   */\n      dup3\n        /* \"#utility.yul\":8834:8843   */\n      dup8\n        /* \"#utility.yul\":8830:8852   */\n      add\n        /* \"#utility.yul\":8800:8862   */\n      tag_140\n      jump\t// in\n    tag_261:\n        /* \"#utility.yul\":8790:8862   */\n      swap2\n      pop\n        /* \"#utility.yul\":8585:8872   */\n      pop\n        /* \"#utility.yul\":8082:8879   */\n      swap3\n      pop\n      swap3\n      pop\n      swap3\n      jump\t// out\n        /* \"#utility.yul\":8885:9095   */\n    tag_55:\n        /* \"#utility.yul\":8972:8976   */\n      0x00\n        /* \"#utility.yul\":9010:9012   */\n      0x20\n        /* \"#utility.yul\":8999:9008   */\n      dup3\n        /* \"#utility.yul\":8995:9013   */\n      add\n        /* \"#utility.yul\":8987:9013   */\n      swap1\n      pop\n        /* \"#utility.yul\":9023:9088   */\n      tag_263\n        /* \"#utility.yul\":9085:9086   */\n      0x00\n        /* \"#utility.yul\":9074:9083   */\n      dup4\n        /* \"#utility.yul\":9070:9087   */\n      add\n        /* \"#utility.yul\":9061:9067   */\n      dup5\n        /* \"#utility.yul\":9023:9088   */\n      tag_118\n      jump\t// in\n    tag_263:\n        /* \"#utility.yul\":8885:9095   */\n      swap3\n      swap2\n      pop\n      pop\n      jump\t// out\n        /* \"#utility.yul\":9101:9323   */\n    tag_64:\n        /* \"#utility.yul\":9194:9198   */\n      0x00\n        /* \"#utility.yul\":9232:9234   */\n      0x20\n        /* \"#utility.yul\":9221:9230   */\n      dup3\n        /* \"#utility.yul\":9217:9235   */\n      add\n        /* \"#utility.yul\":9209:9235   */\n      swap1\n      pop\n        /* \"#utility.yul\":9245:9316   */\n      tag_265\n        /* \"#utility.yul\":9313:9314   */\n      0x00\n        /* \"#utility.yul\":9302:9311   */\n      dup4\n        /* \"#utility.yul\":9298:9315   */\n      add\n        /* \"#utility.yul\":9289:9295   */\n      dup5\n        /* \"#utility.yul\":9245:9316   */\n      tag_120\n      jump\t// in\n    tag_265:\n        /* \"#utility.yul\":9101:9323   */\n      swap3\n      swap2\n      pop\n      pop\n      jump\t// out\n        /* \"#utility.yul\":9329:9509   */\n    tag_141:\n        /* \"#utility.yul\":9377:9454   */\n      0x4e487b7100000000000000000000000000000000000000000000000000000000\n        /* \"#utility.yul\":9374:9375   */\n      0x00\n        /* \"#utility.yul\":9367:9455   */\n      mstore\n        /* \"#utility.yul\":9474:9478   */\n      0x11\n        /* \"#utility.yul\":9471:9472   */\n      0x04\n        /* \"#utility.yul\":9464:9479   */\n      mstore\n        /* \"#utility.yul\":9498:9502   */\n      0x24\n        /* \"#utility.yul\":9495:9496   */\n      0x00\n        /* \"#utility.yul\":9488:9503   */\n      revert\n        /* \"#utility.yul\":9515:9706   */\n    tag_74:\n        /* \"#utility.yul\":9555:9558   */\n      0x00\n        /* \"#utility.yul\":9574:9594   */\n      tag_268\n        /* \"#utility.yul\":9592:9593   */\n      dup3\n        /* \"#utility.yul\":9574:9594   */\n      tag_119\n      jump\t// in\n    tag_268:\n        /* \"#utility.yul\":9569:9594   */\n      swap2\n      pop\n        /* \"#utility.yul\":9608:9628   */\n      tag_269\n        /* \"#utility.yul\":9626:9627   */\n      dup4\n        /* \"#utility.yul\":9608:9628   */\n      tag_119\n      jump\t// in\n    tag_269:\n        /* \"#utility.yul\":9603:9628   */\n      swap3\n      pop\n        /* \"#utility.yul\":9651:9652   */\n      dup3\n        /* \"#utility.yul\":9648:9649   */\n      dup3\n        /* \"#utility.yul\":9644:9653   */\n      add\n        /* \"#utility.yul\":9637:9653   */\n      swap1\n      pop\n        /* \"#utility.yul\":9672:9675   */\n      dup1\n        /* \"#utility.yul\":9669:9670   */\n      dup3\n        /* \"#utility.yul\":9666:9676   */\n      gt\n        /* \"#utility.yul\":9663:9699   */\n      iszero\n      tag_270\n      jumpi\n        /* \"#utility.yul\":9679:9697   */\n      tag_271\n      tag_141\n      jump\t// in\n    tag_271:\n        /* \"#utility.yul\":9663:9699   */\n    tag_270:\n        /* \"#utility.yul\":9515:9706   */\n      swap3\n      swap2\n      pop\n      pop\n      jump\t// out\n        /* \"#utility.yul\":9712:9811   */\n    tag_142:\n        /* \"#utility.yul\":9764:9770   */\n      0x00\n        /* \"#utility.yul\":9798:9803   */\n      dup2\n        /* \"#utility.yul\":9792:9804   */\n      mload\n        /* \"#utility.yul\":9782:9804   */\n      swap1\n      pop\n        /* \"#utility.yul\":9712:9811   */\n      swap2\n      swap1\n      pop\n      jump\t// out\n        /* \"#utility.yul\":9817:9965   */\n    tag_143:\n        /* \"#utility.yul\":9919:9930   */\n      0x00\n        /* \"#utility.yul\":9956:9959   */\n      dup2\n        /* \"#utility.yul\":9941:9959   */\n      swap1\n      pop\n        /* \"#utility.yul\":9817:9965   */\n      swap3\n      swap2\n      pop\n      pop\n      jump\t// out\n        /* \"#utility.yul\":9971:10361   */\n    tag_144:\n        /* \"#utility.yul\":10077:10080   */\n      0x00\n        /* \"#utility.yul\":10105:10144   */\n      tag_275\n        /* \"#utility.yul\":10138:10143   */\n      dup3\n        /* \"#utility.yul\":10105:10144   */\n      tag_142\n      jump\t// in\n    tag_275:\n        /* \"#utility.yul\":10160:10249   */\n      tag_276\n        /* \"#utility.yul\":10242:10248   */\n      dup2\n        /* \"#utility.yul\":10237:10240   */\n      dup6\n        /* \"#utility.yul\":10160:10249   */\n      tag_143\n      jump\t// in\n    tag_276:\n        /* \"#utility.yul\":10153:10249   */\n      swap4\n      pop\n        /* \"#utility.yul\":10258:10323   */\n      tag_277\n        /* \"#utility.yul\":10316:10322   */\n      dup2\n        /* \"#utility.yul\":10311:10314   */\n      dup6\n        /* \"#utility.yul\":10304:10308   */\n      0x20\n        /* \"#utility.yul\":10297:10302   */\n      dup7\n        /* \"#utility.yul\":10293:10309   */\n      add\n        /* \"#utility.yul\":10258:10323   */\n      tag_136\n      jump\t// in\n    tag_277:\n        /* \"#utility.yul\":10348:10354   */\n      dup1\n        /* \"#utility.yul\":10343:10346   */\n      dup5\n        /* \"#utility.yul\":10339:10355   */\n      add\n        /* \"#utility.yul\":10332:10355   */\n      swap2\n      pop\n        /* \"#utility.yul\":10081:10361   */\n      pop\n        /* \"#utility.yul\":9971:10361   */\n      swap3\n      swap2\n      pop\n      pop\n      jump\t// out\n        /* \"#utility.yul\":10367:10642   */\n    tag_78:\n        /* \"#utility.yul\":10499:10502   */\n      0x00\n        /* \"#utility.yul\":10521:10616   */\n      tag_279\n        /* \"#utility.yul\":10612:10615   */\n      dup3\n        /* \"#utility.yul\":10603:10609   */\n      dup5\n        /* \"#utility.yul\":10521:10616   */\n      tag_144\n      jump\t// in\n    tag_279:\n        /* \"#utility.yul\":10514:10616   */\n      swap2\n      pop\n        /* \"#utility.yul\":10633:10636   */\n      dup2\n        /* \"#utility.yul\":10626:10636   */\n      swap1\n      pop\n        /* \"#utility.yul\":10367:10642   */\n      swap3\n      swap2\n      pop\n      pop\n      jump\t// out\n        /* \"#utility.yul\":10648:10817   */\n    tag_145:\n        /* \"#utility.yul\":10732:10743   */\n      0x00\n        /* \"#utility.yul\":10766:10772   */\n      dup3\n        /* \"#utility.yul\":10761:10764   */\n      dup3\n        /* \"#utility.yul\":10754:10773   */\n      mstore\n        /* \"#utility.yul\":10806:10810   */\n      0x20\n        /* \"#utility.yul\":10801:10804   */\n      dup3\n        /* \"#utility.yul\":10797:10811   */\n      add\n        /* \"#utility.yul\":10782:10811   */\n      swap1\n      pop\n        /* \"#utility.yul\":10648:10817   */\n      swap3\n      swap2\n      pop\n      pop\n      jump\t// out\n        /* \"#utility.yul\":10823:11044   */\n    tag_146:\n        /* \"#utility.yul\":10963:10997   */\n      0x596f7520617265206e6f7420616c6c6f77656420746f207472616e7361637469\n        /* \"#utility.yul\":10959:10960   */\n      0x00\n        /* \"#utility.yul\":10951:10957   */\n      dup3\n        /* \"#utility.yul\":10947:10961   */\n      add\n        /* \"#utility.yul\":10940:10998   */\n      mstore\n        /* \"#utility.yul\":11032:11036   */\n      0x6f6e000000000000000000000000000000000000000000000000000000000000\n        /* \"#utility.yul\":11027:11029   */\n      0x20\n        /* \"#utility.yul\":11019:11025   */\n      dup3\n        /* \"#utility.yul\":11015:11030   */\n      add\n        /* \"#utility.yul\":11008:11037   */\n      mstore\n        /* \"#utility.yul\":10823:11044   */\n      pop\n      jump\t// out\n        /* \"#utility.yul\":11050:11416   */\n    tag_147:\n        /* \"#utility.yul\":11192:11195   */\n      0x00\n        /* \"#utility.yul\":11213:11280   */\n      tag_283\n        /* \"#utility.yul\":11277:11279   */\n      0x22\n        /* \"#utility.yul\":11272:11275   */\n      dup4\n        /* \"#utility.yul\":11213:11280   */\n      tag_145\n      jump\t// in\n    tag_283:\n        /* \"#utility.yul\":11206:11280   */\n      swap2\n      pop\n        /* \"#utility.yul\":11289:11382   */\n      tag_284\n        /* \"#utility.yul\":11378:11381   */\n      dup3\n        /* \"#utility.yul\":11289:11382   */\n      tag_146\n      jump\t// in\n    tag_284:\n        /* \"#utility.yul\":11407:11409   */\n      0x40\n        /* \"#utility.yul\":11402:11405   */\n      dup3\n        /* \"#utility.yul\":11398:11410   */\n      add\n        /* \"#utility.yul\":11391:11410   */\n      swap1\n      pop\n        /* \"#utility.yul\":11050:11416   */\n      swap2\n      swap1\n      pop\n      jump\t// out\n        /* \"#utility.yul\":11422:11841   */\n    tag_83:\n        /* \"#utility.yul\":11588:11592   */\n      0x00\n        /* \"#utility.yul\":11626:11628   */\n      0x20\n        /* \"#utility.yul\":11615:11624   */\n      dup3\n        /* \"#utility.yul\":11611:11629   */\n      add\n        /* \"#utility.yul\":11603:11629   */\n      swap1\n      pop\n        /* \"#utility.yul\":11675:11684   */\n      dup2\n        /* \"#utility.yul\":11669:11673   */\n      dup2\n        /* \"#utility.yul\":11665:11685   */\n      sub\n        /* \"#utility.yul\":11661:11662   */\n      0x00\n        /* \"#utility.yul\":11650:11659   */\n      dup4\n        /* \"#utility.yul\":11646:11663   */\n      add\n        /* \"#utility.yul\":11639:11686   */\n      mstore\n        /* \"#utility.yul\":11703:11834   */\n      tag_286\n        /* \"#utility.yul\":11829:11833   */\n      dup2\n        /* \"#utility.yul\":11703:11834   */\n      tag_147\n      jump\t// in\n    tag_286:\n        /* \"#utility.yul\":11695:11834   */\n      swap1\n      pop\n        /* \"#utility.yul\":11422:11841   */\n      swap2\n      swap1\n      pop\n      jump\t// out\n        /* \"#utility.yul\":11847:12075   */\n    tag_148:\n        /* \"#utility.yul\":11987:12021   */\n      0x596f752063616e206e6f74207472616e666572206d6f7265207468616e20796f\n        /* \"#utility.yul\":11983:11984   */\n      0x00\n        /* \"#utility.yul\":11975:11981   */\n      dup3\n        /* \"#utility.yul\":11971:11985   */\n      add\n        /* \"#utility.yul\":11964:12022   */\n      mstore\n        /* \"#utility.yul\":12056:12067   */\n      0x7520616c6c6f7765640000000000000000000000000000000000000000000000\n        /* \"#utility.yul\":12051:12053   */\n      0x20\n        /* \"#utility.yul\":12043:12049   */\n      dup3\n        /* \"#utility.yul\":12039:12054   */\n      add\n        /* \"#utility.yul\":12032:12068   */\n      mstore\n        /* \"#utility.yul\":11847:12075   */\n      pop\n      jump\t// out\n        /* \"#utility.yul\":12081:12447   */\n    tag_149:\n        /* \"#utility.yul\":12223:12226   */\n      0x00\n        /* \"#utility.yul\":12244:12311   */\n      tag_289\n        /* \"#utility.yul\":12308:12310   */\n      0x29\n        /* \"#utility.yul\":12303:12306   */\n      dup4\n        /* \"#utility.yul\":12244:12311   */\n      tag_145\n      jump\t// in\n    tag_289:\n        /* \"#utility.yul\":12237:12311   */\n      swap2\n      pop\n        /* \"#utility.yul\":12320:12413   */\n      tag_290\n        /* \"#utility.yul\":12409:12412   */\n      dup3\n        /* \"#utility.yul\":12320:12413   */\n      tag_148\n      jump\t// in\n    tag_290:\n        /* \"#utility.yul\":12438:12440   */\n      0x40\n        /* \"#utility.yul\":12433:12436   */\n      dup3\n        /* \"#utility.yul\":12429:12441   */\n      add\n        /* \"#utility.yul\":12422:12441   */\n      swap1\n      pop\n        /* \"#utility.yul\":12081:12447   */\n      swap2\n      swap1\n      pop\n      jump\t// out\n        /* \"#utility.yul\":12453:12872   */\n    tag_86:\n        /* \"#utility.yul\":12619:12623   */\n      0x00\n        /* \"#utility.yul\":12657:12659   */\n      0x20\n        /* \"#utility.yul\":12646:12655   */\n      dup3\n        /* \"#utility.yul\":12642:12660   */\n      add\n        /* \"#utility.yul\":12634:12660   */\n      swap1\n      pop\n        /* \"#utility.yul\":12706:12715   */\n      dup2\n        /* \"#utility.yul\":12700:12704   */\n      dup2\n        /* \"#utility.yul\":12696:12716   */\n      sub\n        /* \"#utility.yul\":12692:12693   */\n      0x00\n        /* \"#utility.yul\":12681:12690   */\n      dup4\n        /* \"#utility.yul\":12677:12694   */\n      add\n        /* \"#utility.yul\":12670:12717   */\n      mstore\n        /* \"#utility.yul\":12734:12865   */\n      tag_292\n        /* \"#utility.yul\":12860:12864   */\n      dup2\n        /* \"#utility.yul\":12734:12865   */\n      tag_149\n      jump\t// in\n    tag_292:\n        /* \"#utility.yul\":12726:12865   */\n      swap1\n      pop\n        /* \"#utility.yul\":12453:12872   */\n      swap2\n      swap1\n      pop\n      jump\t// out\n        /* \"#utility.yul\":12878:13072   */\n    tag_88:\n        /* \"#utility.yul\":12918:12922   */\n      0x00\n        /* \"#utility.yul\":12938:12958   */\n      tag_294\n        /* \"#utility.yul\":12956:12957   */\n      dup3\n        /* \"#utility.yul\":12938:12958   */\n      tag_119\n      jump\t// in\n    tag_294:\n        /* \"#utility.yul\":12933:12958   */\n      swap2\n      pop\n        /* \"#utility.yul\":12972:12992   */\n      tag_295\n        /* \"#utility.yul\":12990:12991   */\n      dup4\n        /* \"#utility.yul\":12972:12992   */\n      tag_119\n      jump\t// in\n    tag_295:\n        /* \"#utility.yul\":12967:12992   */\n      swap3\n      pop\n        /* \"#utility.yul\":13016:13017   */\n      dup3\n        /* \"#utility.yul\":13013:13014   */\n      dup3\n        /* \"#utility.yul\":13009:13018   */\n      sub\n        /* \"#utility.yul\":13001:13018   */\n      swap1\n      pop\n        /* \"#utility.yul\":13040:13041   */\n      dup2\n        /* \"#utility.yul\":13034:13038   */\n      dup2\n        /* \"#utility.yul\":13031:13042   */\n      gt\n        /* \"#utility.yul\":13028:13065   */\n      iszero\n      tag_296\n      jumpi\n        /* \"#utility.yul\":13045:13063   */\n      tag_297\n      tag_141\n      jump\t// in\n    tag_297:\n        /* \"#utility.yul\":13028:13065   */\n    tag_296:\n        /* \"#utility.yul\":12878:13072   */\n      swap3\n      swap2\n      pop\n      pop\n      jump\t// out\n        /* \"#utility.yul\":13078:13225   */\n    tag_150:\n        /* \"#utility.yul\":13179:13190   */\n      0x00\n        /* \"#utility.yul\":13216:13219   */\n      dup2\n        /* \"#utility.yul\":13201:13219   */\n      swap1\n      pop\n        /* \"#utility.yul\":13078:13225   */\n      swap3\n      swap2\n      pop\n      pop\n      jump\t// out\n        /* \"#utility.yul\":13231:13617   */\n    tag_151:\n        /* \"#utility.yul\":13335:13338   */\n      0x00\n        /* \"#utility.yul\":13363:13401   */\n      tag_300\n        /* \"#utility.yul\":13395:13400   */\n      dup3\n        /* \"#utility.yul\":13363:13401   */\n      tag_134\n      jump\t// in\n    tag_300:\n        /* \"#utility.yul\":13417:13505   */\n      tag_301\n        /* \"#utility.yul\":13498:13504   */\n      dup2\n        /* \"#utility.yul\":13493:13496   */\n      dup6\n        /* \"#utility.yul\":13417:13505   */\n      tag_150\n      jump\t// in\n    tag_301:\n        /* \"#utility.yul\":13410:13505   */\n      swap4\n      pop\n        /* \"#utility.yul\":13514:13579   */\n      tag_302\n        /* \"#utility.yul\":13572:13578   */\n      dup2\n        /* \"#utility.yul\":13567:13570   */\n      dup6\n        /* \"#utility.yul\":13560:13564   */\n      0x20\n        /* \"#utility.yul\":13553:13558   */\n      dup7\n        /* \"#utility.yul\":13549:13565   */\n      add\n        /* \"#utility.yul\":13514:13579   */\n      tag_136\n      jump\t// in\n    tag_302:\n        /* \"#utility.yul\":13604:13610   */\n      dup1\n        /* \"#utility.yul\":13599:13602   */\n      dup5\n        /* \"#utility.yul\":13595:13611   */\n      add\n        /* \"#utility.yul\":13588:13611   */\n      swap2\n      pop\n        /* \"#utility.yul\":13339:13617   */\n      pop\n        /* \"#utility.yul\":13231:13617   */\n      swap3\n      swap2\n      pop\n      pop\n      jump\t// out\n        /* \"#utility.yul\":13623:13894   */\n    tag_90:\n        /* \"#utility.yul\":13753:13756   */\n      0x00\n        /* \"#utility.yul\":13775:13868   */\n      tag_304\n        /* \"#utility.yul\":13864:13867   */\n      dup3\n        /* \"#utility.yul\":13855:13861   */\n      dup5\n        /* \"#utility.yul\":13775:13868   */\n      tag_151\n      jump\t// in\n    tag_304:\n        /* \"#utility.yul\":13768:13868   */\n      swap2\n      pop\n        /* \"#utility.yul\":13885:13888   */\n      dup2\n        /* \"#utility.yul\":13878:13888   */\n      swap1\n      pop\n        /* \"#utility.yul\":13623:13894   */\n      swap3\n      swap2\n      pop\n      pop\n      jump\t// out\n        /* \"#utility.yul\":13900:14066   */\n    tag_152:\n        /* \"#utility.yul\":14040:14058   */\n      0x496e76616c6964205472616e7366657200000000000000000000000000000000\n        /* \"#utility.yul\":14036:14037   */\n      0x00\n        /* \"#utility.yul\":14028:14034   */\n      dup3\n        /* \"#utility.yul\":14024:14038   */\n      add\n        /* \"#utility.yul\":14017:14059   */\n      mstore\n        /* \"#utility.yul\":13900:14066   */\n      pop\n      jump\t// out\n        /* \"#utility.yul\":14072:14438   */\n    tag_153:\n        /* \"#utility.yul\":14214:14217   */\n      0x00\n        /* \"#utility.yul\":14235:14302   */\n      tag_307\n        /* \"#utility.yul\":14299:14301   */\n      0x10\n        /* \"#utility.yul\":14294:14297   */\n      dup4\n        /* \"#utility.yul\":14235:14302   */\n      tag_145\n      jump\t// in\n    tag_307:\n        /* \"#utility.yul\":14228:14302   */\n      swap2\n      pop\n        /* \"#utility.yul\":14311:14404   */\n      tag_308\n        /* \"#utility.yul\":14400:14403   */\n      dup3\n        /* \"#utility.yul\":14311:14404   */\n      tag_152\n      jump\t// in\n    tag_308:\n        /* \"#utility.yul\":14429:14431   */\n      0x20\n        /* \"#utility.yul\":14424:14427   */\n      dup3\n        /* \"#utility.yul\":14420:14432   */\n      add\n        /* \"#utility.yul\":14413:14432   */\n      swap1\n      pop\n        /* \"#utility.yul\":14072:14438   */\n      swap2\n      swap1\n      pop\n      jump\t// out\n        /* \"#utility.yul\":14444:14863   */\n    tag_96:\n        /* \"#utility.yul\":14610:14614   */\n      0x00\n        /* \"#utility.yul\":14648:14650   */\n      0x20\n        /* \"#utility.yul\":14637:14646   */\n      dup3\n        /* \"#utility.yul\":14633:14651   */\n      add\n        /* \"#utility.yul\":14625:14651   */\n      swap1\n      pop\n        /* \"#utility.yul\":14697:14706   */\n      dup2\n        /* \"#utility.yul\":14691:14695   */\n      dup2\n        /* \"#utility.yul\":14687:14707   */\n      sub\n        /* \"#utility.yul\":14683:14684   */\n      0x00\n        /* \"#utility.yul\":14672:14681   */\n      dup4\n        /* \"#utility.yul\":14668:14685   */\n      add\n        /* \"#utility.yul\":14661:14708   */\n      mstore\n        /* \"#utility.yul\":14725:14856   */\n      tag_310\n        /* \"#utility.yul\":14851:14855   */\n      dup2\n        /* \"#utility.yul\":14725:14856   */\n      tag_153\n      jump\t// in\n    tag_310:\n        /* \"#utility.yul\":14717:14856   */\n      swap1\n      pop\n        /* \"#utility.yul\":14444:14863   */\n      swap2\n      swap1\n      pop\n      jump\t// out\n        /* \"#utility.yul\":14869:15092   */\n    tag_154:\n        /* \"#utility.yul\":15009:15043   */\n      0x596f7520617265206e6f7420616c6c6f77656420746f20736574206e6577206f\n        /* \"#utility.yul\":15005:15006   */\n      0x00\n        /* \"#utility.yul\":14997:15003   */\n      dup3\n        /* \"#utility.yul\":14993:15007   */\n      add\n        /* \"#utility.yul\":14986:15044   */\n      mstore\n        /* \"#utility.yul\":15078:15084   */\n      0x776e657200000000000000000000000000000000000000000000000000000000\n        /* \"#utility.yul\":15073:15075   */\n      0x20\n        /* \"#utility.yul\":15065:15071   */\n      dup3\n        /* \"#utility.yul\":15061:15076   */\n      add\n        /* \"#utility.yul\":15054:15085   */\n      mstore\n        /* \"#utility.yul\":14869:15092   */\n      pop\n      jump\t// out\n        /* \"#utility.yul\":15098:15464   */\n    tag_155:\n        /* \"#utility.yul\":15240:15243   */\n      0x00\n        /* \"#utility.yul\":15261:15328   */\n      tag_313\n        /* \"#utility.yul\":15325:15327   */\n      0x24\n        /* \"#utility.yul\":15320:15323   */\n      dup4\n        /* \"#utility.yul\":15261:15328   */\n      tag_145\n      jump\t// in\n    tag_313:\n        /* \"#utility.yul\":15254:15328   */\n      swap2\n      pop\n        /* \"#utility.yul\":15337:15430   */\n      tag_314\n        /* \"#utility.yul\":15426:15429   */\n      dup3\n        /* \"#utility.yul\":15337:15430   */\n      tag_154\n      jump\t// in\n    tag_314:\n        /* \"#utility.yul\":15455:15457   */\n      0x40\n        /* \"#utility.yul\":15450:15453   */\n      dup3\n        /* \"#utility.yul\":15446:15458   */\n      add\n        /* \"#utility.yul\":15439:15458   */\n      swap1\n      pop\n        /* \"#utility.yul\":15098:15464   */\n      swap2\n      swap1\n      pop\n      jump\t// out\n        /* \"#utility.yul\":15470:15889   */\n    tag_102:\n        /* \"#utility.yul\":15636:15640   */\n      0x00\n        /* \"#utility.yul\":15674:15676   */\n      0x20\n        /* \"#utility.yul\":15663:15672   */\n      dup3\n        /* \"#utility.yul\":15659:15677   */\n      add\n        /* \"#utility.yul\":15651:15677   */\n      swap1\n      pop\n        /* \"#utility.yul\":15723:15732   */\n      dup2\n        /* \"#utility.yul\":15717:15721   */\n      dup2\n        /* \"#utility.yul\":15713:15733   */\n      sub\n        /* \"#utility.yul\":15709:15710   */\n      0x00\n        /* \"#utility.yul\":15698:15707   */\n      dup4\n        /* \"#utility.yul\":15694:15711   */\n      add\n        /* \"#utility.yul\":15687:15734   */\n      mstore\n        /* \"#utility.yul\":15751:15882   */\n      tag_316\n        /* \"#utility.yul\":15877:15881   */\n      dup2\n        /* \"#utility.yul\":15751:15882   */\n      tag_155\n      jump\t// in\n    tag_316:\n        /* \"#utility.yul\":15743:15882   */\n      swap1\n      pop\n        /* \"#utility.yul\":15470:15889   */\n      swap2\n      swap1\n      pop\n      jump\t// out\n        /* \"#utility.yul\":15895:16128   */\n    tag_105:\n        /* \"#utility.yul\":15934:15937   */\n      0x00\n        /* \"#utility.yul\":15957:15981   */\n      tag_318\n        /* \"#utility.yul\":15975:15980   */\n      dup3\n        /* \"#utility.yul\":15957:15981   */\n      tag_119\n      jump\t// in\n    tag_318:\n        /* \"#utility.yul\":15948:15981   */\n      swap2\n      pop\n        /* \"#utility.yul\":16003:16069   */\n      0xffffffffffffffffffffffffffffffffffffffffffffffffffffffffffffffff\n        /* \"#utility.yul\":15996:16001   */\n      dup3\n        /* \"#utility.yul\":15993:16070   */\n      sub\n        /* \"#utility.yul\":15990:16093   */\n      tag_319\n      jumpi\n        /* \"#utility.yul\":16073:16091   */\n      tag_320\n      tag_141\n      jump\t// in\n    tag_320:\n        /* \"#utility.yul\":15990:16093   */\n    tag_319:\n        /* \"#utility.yul\":16120:16121   */\n      0x01\n        /* \"#utility.yul\":16113:16118   */\n      dup3\n        /* \"#utility.yul\":16109:16122   */\n      add\n        /* \"#utility.yul\":16102:16122   */\n      swap1\n      pop\n        /* \"#utility.yul\":15895:16128   */\n      swap2\n      swap1\n      pop\n      jump\t// out\n\n    auxdata: 0xa26469706673582212200a9b3fd8eba300ef9cdfd5f650703f917fea96b755aebf9c9a364799af8901a164736f6c63430008120033\n}\n",
				"bytecode": {
					"linkReferences": {},
					"object": "608060405234801561001057600080fd5b50336000806101000a81548173ffffffffffffffffffffffffffffffffffffffff021916908373ffffffffffffffffffffffffffffffffffffffff1602179055506113bf806100606000396000f3fe6080604052600436106100955760003560e01c8063b6b3c86d11610059578063b6b3c86d146101ad578063dfac031d146101d8578063f3814e7414610215578063f8f8a9121461023e578063fb445c36146102695761009c565b80630199d925146100a157806305ed0cef146100df5780630ae50a391461010857806378c3bd7114610133578063850a6919146101705761009c565b3661009c57005b600080fd5b3480156100ad57600080fd5b506100c860048036038101906100c39190610b30565b610292565b6040516100d6929190610b91565b60405180910390f35b3480156100eb57600080fd5b5061010660048036038101906101019190610be6565b61032b565b005b34801561011457600080fd5b5061011d61043b565b60405161012a9190610c35565b60405180910390f35b34801561013f57600080fd5b5061015a60048036038101906101559190610d96565b610464565b6040516101679190610e5e565b60405180910390f35b34801561017c57600080fd5b5061019760048036038101906101929190610f21565b6104ec565b6040516101a49190610e5e565b60405180910390f35b3480156101b957600080fd5b506101c2610761565b6040516101cf9190610c35565b60405180910390f35b3480156101e457600080fd5b506101ff60048036038101906101fa9190610b30565b610769565b60405161020c9190610f90565b60405180910390f35b34801561022157600080fd5b5061023c60048036038101906102379190610b30565b6107bf565b005b34801561024a57600080fd5b50610253610a07565b6040516102609190610fab565b60405180910390f35b34801561027557600080fd5b50610290600480360381019061028b9190610b30565b610a0f565b005b600080600260008473ffffffffffffffffffffffffffffffffffffffff1673ffffffffffffffffffffffffffffffffffffffff16815260200190815260200160002060009054906101000a900460ff169150600160008473ffffffffffffffffffffffffffffffffffffffff1673ffffffffffffffffffffffffffffffffffffffff168152602001908152602001600020549050915091565b3373ffffffffffffffffffffffffffffffffffffffff1660008054906101000a900473ffffffffffffffffffffffffffffffffffffffff1673ffffffffffffffffffffffffffffffffffffffff1603610437576001600260008473ffffffffffffffffffffffffffffffffffffffff1673ffffffffffffffffffffffffffffffffffffffff16815260200190815260200160002060006101000a81548160ff02191690831515021790555060008111156104365780600160008473ffffffffffffffffffffffffffffffffffffffff1673ffffffffffffffffffffffffffffffffffffffff168152602001908152602001600020600082825461042e9190610ff5565b925050819055505b5b5050565b60008060009054906101000a900473ffffffffffffffffffffffffffffffffffffffff16905090565b60606000826040516024016040516020818303038152906040529060405161048c9190611070565b60405180910390207bffffffffffffffffffffffffffffffffffffffffffffffffffffffff19166020820180517bffffffffffffffffffffffffffffffffffffffffffffffffffffffff8381831617835250505050905080915050919050565b60603373ffffffffffffffffffffffffffffffffffffffff1660008054906101000a900473ffffffffffffffffffffffffffffffffffffffff1673ffffffffffffffffffffffffffffffffffffffff16146106a557600260003373ffffffffffffffffffffffffffffffffffffffff1673ffffffffffffffffffffffffffffffffffffffff16815260200190815260200160002060009054906101000a900460ff166105cd576040517f08c379a00000000000000000000000000000000000000000000000000000000081526004016105c49061110a565b60405180910390fd5b82600160003373ffffffffffffffffffffffffffffffffffffffff1673ffffffffffffffffffffffffffffffffffffffff168152602001908152602001600020541161064e576040517f08c379a00000000000000000000000000000000000000000000000000000000081526004016106459061119c565b60405180910390fd5b82600160003373ffffffffffffffffffffffffffffffffffffffff1673ffffffffffffffffffffffffffffffffffffffff168152602001908152602001600020600082825461069d91906111bc565b925050819055505b6000808573ffffffffffffffffffffffffffffffffffffffff1685856040516106ce919061122c565b60006040518083038185875af1925050503d806000811461070b576040519150601f19603f3d011682016040523d82523d6000602084013e610710565b606091505b509150915081610755576040517f08c379a000000000000000000000000000000000000000000000000000000000815260040161074c9061128f565b60405180910390fd5b80925050509392505050565b600033905090565b6000600360008373ffffffffffffffffffffffffffffffffffffffff1673ffffffffffffffffffffffffffffffffffffffff16815260200190815260200160002060009054906101000a900460ff169050919050565b600360003373ffffffffffffffffffffffffffffffffffffffff1673ffffffffffffffffffffffffffffffffffffffff16815260200190815260200160002060009054906101000a900460ff1661084b576040517f08c379a000000000000000000000000000000000000000000000000000000000815260040161084290611321565b60405180910390fd5b600560009054906101000a900473ffffffffffffffffffffffffffffffffffffffff1673ffffffffffffffffffffffffffffffffffffffff168173ffffffffffffffffffffffffffffffffffffffff16146108ea5780600560006101000a81548173ffffffffffffffffffffffffffffffffffffffff021916908373ffffffffffffffffffffffffffffffffffffffff16021790555060006006819055505b600660008154809291906108fd90611341565b91905055506001600460008373ffffffffffffffffffffffffffffffffffffffff1673ffffffffffffffffffffffffffffffffffffffff16815260200190815260200160002060003373ffffffffffffffffffffffffffffffffffffffff1673ffffffffffffffffffffffffffffffffffffffff16815260200190815260200160002060006101000a81548160ff021916908315150217905550600360065403610a0457600560009054906101000a900473ffffffffffffffffffffffffffffffffffffffff166000806101000a81548173ffffffffffffffffffffffffffffffffffffffff021916908373ffffffffffffffffffffffffffffffffffffffff1602179055505b50565b600047905090565b3373ffffffffffffffffffffffffffffffffffffffff1660008054906101000a900473ffffffffffffffffffffffffffffffffffffffff1673ffffffffffffffffffffffffffffffffffffffff1603610abb576001600360008373ffffffffffffffffffffffffffffffffffffffff1673ffffffffffffffffffffffffffffffffffffffff16815260200190815260200160002060006101000a81548160ff0219169083151502179055505b50565b6000604051905090565b600080fd5b600080fd5b600073ffffffffffffffffffffffffffffffffffffffff82169050919050565b6000610afd82610ad2565b9050919050565b610b0d81610af2565b8114610b1857600080fd5b50565b600081359050610b2a81610b04565b92915050565b600060208284031215610b4657610b45610ac8565b5b6000610b5484828501610b1b565b91505092915050565b60008115159050919050565b610b7281610b5d565b82525050565b6000819050919050565b610b8b81610b78565b82525050565b6000604082019050610ba66000830185610b69565b610bb36020830184610b82565b9392505050565b610bc381610b78565b8114610bce57600080fd5b50565b600081359050610be081610bba565b92915050565b60008060408385031215610bfd57610bfc610ac8565b5b6000610c0b85828601610b1b565b9250506020610c1c85828601610bd1565b9150509250929050565b610c2f81610af2565b82525050565b6000602082019050610c4a6000830184610c26565b92915050565b600080fd5b600080fd5b6000601f19601f8301169050919050565b7f4e487b7100000000000000000000000000000000000000000000000000000000600052604160045260246000fd5b610ca382610c5a565b810181811067ffffffffffffffff82111715610cc257610cc1610c6b565b5b80604052505050565b6000610cd5610abe565b9050610ce18282610c9a565b919050565b600067ffffffffffffffff821115610d0157610d00610c6b565b5b610d0a82610c5a565b9050602081019050919050565b82818337600083830152505050565b6000610d39610d3484610ce6565b610ccb565b905082815260208101848484011115610d5557610d54610c55565b5b610d60848285610d17565b509392505050565b600082601f830112610d7d57610d7c610c50565b5b8135610d8d848260208601610d26565b91505092915050565b600060208284031215610dac57610dab610ac8565b5b600082013567ffffffffffffffff811115610dca57610dc9610acd565b5b610dd684828501610d68565b91505092915050565b600081519050919050565b600082825260208201905092915050565b60005b83811015610e19578082015181840152602081019050610dfe565b60008484015250505050565b6000610e3082610ddf565b610e3a8185610dea565b9350610e4a818560208601610dfb565b610e5381610c5a565b840191505092915050565b60006020820190508181036000830152610e788184610e25565b905092915050565b600067ffffffffffffffff821115610e9b57610e9a610c6b565b5b610ea482610c5a565b9050602081019050919050565b6000610ec4610ebf84610e80565b610ccb565b905082815260208101848484011115610ee057610edf610c55565b5b610eeb848285610d17565b509392505050565b600082601f830112610f0857610f07610c50565b5b8135610f18848260208601610eb1565b91505092915050565b600080600060608486031215610f3a57610f39610ac8565b5b6000610f4886828701610b1b565b9350506020610f5986828701610bd1565b925050604084013567ffffffffffffffff811115610f7a57610f79610acd565b5b610f8686828701610ef3565b9150509250925092565b6000602082019050610fa56000830184610b69565b92915050565b6000602082019050610fc06000830184610b82565b92915050565b7f4e487b7100000000000000000000000000000000000000000000000000000000600052601160045260246000fd5b600061100082610b78565b915061100b83610b78565b925082820190508082111561102357611022610fc6565b5b92915050565b600081519050919050565b600081905092915050565b600061104a82611029565b6110548185611034565b9350611064818560208601610dfb565b80840191505092915050565b600061107c828461103f565b915081905092915050565b600082825260208201905092915050565b7f596f7520617265206e6f7420616c6c6f77656420746f207472616e736163746960008201527f6f6e000000000000000000000000000000000000000000000000000000000000602082015250565b60006110f4602283611087565b91506110ff82611098565b604082019050919050565b60006020820190508181036000830152611123816110e7565b9050919050565b7f596f752063616e206e6f74207472616e666572206d6f7265207468616e20796f60008201527f7520616c6c6f7765640000000000000000000000000000000000000000000000602082015250565b6000611186602983611087565b91506111918261112a565b604082019050919050565b600060208201905081810360008301526111b581611179565b9050919050565b60006111c782610b78565b91506111d283610b78565b92508282039050818111156111ea576111e9610fc6565b5b92915050565b600081905092915050565b600061120682610ddf565b61121081856111f0565b9350611220818560208601610dfb565b80840191505092915050565b600061123882846111fb565b915081905092915050565b7f496e76616c6964205472616e7366657200000000000000000000000000000000600082015250565b6000611279601083611087565b915061128482611243565b602082019050919050565b600060208201905081810360008301526112a88161126c565b9050919050565b7f596f7520617265206e6f7420616c6c6f77656420746f20736574206e6577206f60008201527f776e657200000000000000000000000000000000000000000000000000000000602082015250565b600061130b602483611087565b9150611316826112af565b604082019050919050565b6000602082019050818103600083015261133a816112fe565b9050919050565b600061134c82610b78565b91507fffffffffffffffffffffffffffffffffffffffffffffffffffffffffffffffff820361137e5761137d610fc6565b5b60018201905091905056fea26469706673582212200a9b3fd8eba300ef9cdfd5f650703f917fea96b755aebf9c9a364799af8901a164736f6c63430008120033",
					"opcodes": "PUSH1 0x80 PUSH1 0x40 MSTORE CALLVALUE DUP1 ISZERO PUSH2 0x10 JUMPI PUSH1 0x0 DUP1 REVERT JUMPDEST POP CALLER PUSH1 0x0 DUP1 PUSH2 0x100 EXP DUP2 SLOAD DUP2 PUSH20 0xFFFFFFFFFFFFFFFFFFFFFFFFFFFFFFFFFFFFFFFF MUL NOT AND SWAP1 DUP4 PUSH20 0xFFFFFFFFFFFFFFFFFFFFFFFFFFFFFFFFFFFFFFFF AND MUL OR SWAP1 SSTORE POP PUSH2 0x13BF DUP1 PUSH2 0x60 PUSH1 0x0 CODECOPY PUSH1 0x0 RETURN INVALID PUSH1 0x80 PUSH1 0x40 MSTORE PUSH1 0x4 CALLDATASIZE LT PUSH2 0x95 JUMPI PUSH1 0x0 CALLDATALOAD PUSH1 0xE0 SHR DUP1 PUSH4 0xB6B3C86D GT PUSH2 0x59 JUMPI DUP1 PUSH4 0xB6B3C86D EQ PUSH2 0x1AD JUMPI DUP1 PUSH4 0xDFAC031D EQ PUSH2 0x1D8 JUMPI DUP1 PUSH4 0xF3814E74 EQ PUSH2 0x215 JUMPI DUP1 PUSH4 0xF8F8A912 EQ PUSH2 0x23E JUMPI DUP1 PUSH4 0xFB445C36 EQ PUSH2 0x269 JUMPI PUSH2 0x9C JUMP JUMPDEST DUP1 PUSH4 0x199D925 EQ PUSH2 0xA1 JUMPI DUP1 PUSH4 0x5ED0CEF EQ PUSH2 0xDF JUMPI DUP1 PUSH4 0xAE50A39 EQ PUSH2 0x108 JUMPI DUP1 PUSH4 0x78C3BD71 EQ PUSH2 0x133 JUMPI DUP1 PUSH4 0x850A6919 EQ PUSH2 0x170 JUMPI PUSH2 0x9C JUMP JUMPDEST CALLDATASIZE PUSH2 0x9C JUMPI STOP JUMPDEST PUSH1 0x0 DUP1 REVERT JUMPDEST CALLVALUE DUP1 ISZERO PUSH2 0xAD JUMPI PUSH1 0x0 DUP1 REVERT JUMPDEST POP PUSH2 0xC8 PUSH1 0x4 DUP1 CALLDATASIZE SUB DUP2 ADD SWAP1 PUSH2 0xC3 SWAP2 SWAP1 PUSH2 0xB30 JUMP JUMPDEST PUSH2 0x292 JUMP JUMPDEST PUSH1 0x40 MLOAD PUSH2 0xD6 SWAP3 SWAP2 SWAP1 PUSH2 0xB91 JUMP JUMPDEST PUSH1 0x40 MLOAD DUP1 SWAP2 SUB SWAP1 RETURN JUMPDEST CALLVALUE DUP1 ISZERO PUSH2 0xEB JUMPI PUSH1 0x0 DUP1 REVERT JUMPDEST POP PUSH2 0x106 PUSH1 0x4 DUP1 CALLDATASIZE SUB DUP2 ADD SWAP1 PUSH2 0x101 SWAP2 SWAP1 PUSH2 0xBE6 JUMP JUMPDEST PUSH2 0x32B JUMP JUMPDEST STOP JUMPDEST CALLVALUE DUP1 ISZERO PUSH2 0x114 JUMPI PUSH1 0x0 DUP1 REVERT JUMPDEST POP PUSH2 0x11D PUSH2 0x43B JUMP JUMPDEST PUSH1 0x40 MLOAD PUSH2 0x12A SWAP2 SWAP1 PUSH2 0xC35 JUMP JUMPDEST PUSH1 0x40 MLOAD DUP1 SWAP2 SUB SWAP1 RETURN JUMPDEST CALLVALUE DUP1 ISZERO PUSH2 0x13F JUMPI PUSH1 0x0 DUP1 REVERT JUMPDEST POP PUSH2 0x15A PUSH1 0x4 DUP1 CALLDATASIZE SUB DUP2 ADD SWAP1 PUSH2 0x155 SWAP2 SWAP1 PUSH2 0xD96 JUMP JUMPDEST PUSH2 0x464 JUMP JUMPDEST PUSH1 0x40 MLOAD PUSH2 0x167 SWAP2 SWAP1 PUSH2 0xE5E JUMP JUMPDEST PUSH1 0x40 MLOAD DUP1 SWAP2 SUB SWAP1 RETURN JUMPDEST CALLVALUE DUP1 ISZERO PUSH2 0x17C JUMPI PUSH1 0x0 DUP1 REVERT JUMPDEST POP PUSH2 0x197 PUSH1 0x4 DUP1 CALLDATASIZE SUB DUP2 ADD SWAP1 PUSH2 0x192 SWAP2 SWAP1 PUSH2 0xF21 JUMP JUMPDEST PUSH2 0x4EC JUMP JUMPDEST PUSH1 0x40 MLOAD PUSH2 0x1A4 SWAP2 SWAP1 PUSH2 0xE5E JUMP JUMPDEST PUSH1 0x40 MLOAD DUP1 SWAP2 SUB SWAP1 RETURN JUMPDEST CALLVALUE DUP1 ISZERO PUSH2 0x1B9 JUMPI PUSH1 0x0 DUP1 REVERT JUMPDEST POP PUSH2 0x1C2 PUSH2 0x761 JUMP JUMPDEST PUSH1 0x40 MLOAD PUSH2 0x1CF SWAP2 SWAP1 PUSH2 0xC35 JUMP JUMPDEST PUSH1 0x40 MLOAD DUP1 SWAP2 SUB SWAP1 RETURN JUMPDEST CALLVALUE DUP1 ISZERO PUSH2 0x1E4 JUMPI PUSH1 0x0 DUP1 REVERT JUMPDEST POP PUSH2 0x1FF PUSH1 0x4 DUP1 CALLDATASIZE SUB DUP2 ADD SWAP1 PUSH2 0x1FA SWAP2 SWAP1 PUSH2 0xB30 JUMP JUMPDEST PUSH2 0x769 JUMP JUMPDEST PUSH1 0x40 MLOAD PUSH2 0x20C SWAP2 SWAP1 PUSH2 0xF90 JUMP JUMPDEST PUSH1 0x40 MLOAD DUP1 SWAP2 SUB SWAP1 RETURN JUMPDEST CALLVALUE DUP1 ISZERO PUSH2 0x221 JUMPI PUSH1 0x0 DUP1 REVERT JUMPDEST POP PUSH2 0x23C PUSH1 0x4 DUP1 CALLDATASIZE SUB DUP2 ADD SWAP1 PUSH2 0x237 SWAP2 SWAP1 PUSH2 0xB30 JUMP JUMPDEST PUSH2 0x7BF JUMP JUMPDEST STOP JUMPDEST CALLVALUE DUP1 ISZERO PUSH2 0x24A JUMPI PUSH1 0x0 DUP1 REVERT JUMPDEST POP PUSH2 0x253 PUSH2 0xA07 JUMP JUMPDEST PUSH1 0x40 MLOAD PUSH2 0x260 SWAP2 SWAP1 PUSH2 0xFAB JUMP JUMPDEST PUSH1 0x40 MLOAD DUP1 SWAP2 SUB SWAP1 RETURN JUMPDEST CALLVALUE DUP1 ISZERO PUSH2 0x275 JUMPI PUSH1 0x0 DUP1 REVERT JUMPDEST POP PUSH2 0x290 PUSH1 0x4 DUP1 CALLDATASIZE SUB DUP2 ADD SWAP1 PUSH2 0x28B SWAP2 SWAP1 PUSH2 0xB30 JUMP JUMPDEST PUSH2 0xA0F JUMP JUMPDEST STOP JUMPDEST PUSH1 0x0 DUP1 PUSH1 0x2 PUSH1 0x0 DUP5 PUSH20 0xFFFFFFFFFFFFFFFFFFFFFFFFFFFFFFFFFFFFFFFF AND PUSH20 0xFFFFFFFFFFFFFFFFFFFFFFFFFFFFFFFFFFFFFFFF AND DUP2 MSTORE PUSH1 0x20 ADD SWAP1 DUP2 MSTORE PUSH1 0x20 ADD PUSH1 0x0 KECCAK256 PUSH1 0x0 SWAP1 SLOAD SWAP1 PUSH2 0x100 EXP SWAP1 DIV PUSH1 0xFF AND SWAP2 POP PUSH1 0x1 PUSH1 0x0 DUP5 PUSH20 0xFFFFFFFFFFFFFFFFFFFFFFFFFFFFFFFFFFFFFFFF AND PUSH20 0xFFFFFFFFFFFFFFFFFFFFFFFFFFFFFFFFFFFFFFFF AND DUP2 MSTORE PUSH1 0x20 ADD SWAP1 DUP2 MSTORE PUSH1 0x20 ADD PUSH1 0x0 KECCAK256 SLOAD SWAP1 POP SWAP2 POP SWAP2 JUMP JUMPDEST CALLER PUSH20 0xFFFFFFFFFFFFFFFFFFFFFFFFFFFFFFFFFFFFFFFF AND PUSH1 0x0 DUP1 SLOAD SWAP1 PUSH2 0x100 EXP SWAP1 DIV PUSH20 0xFFFFFFFFFFFFFFFFFFFFFFFFFFFFFFFFFFFFFFFF AND PUSH20 0xFFFFFFFFFFFFFFFFFFFFFFFFFFFFFFFFFFFFFFFF AND SUB PUSH2 0x437 JUMPI PUSH1 0x1 PUSH1 0x2 PUSH1 0x0 DUP5 PUSH20 0xFFFFFFFFFFFFFFFFFFFFFFFFFFFFFFFFFFFFFFFF AND PUSH20 0xFFFFFFFFFFFFFFFFFFFFFFFFFFFFFFFFFFFFFFFF AND DUP2 MSTORE PUSH1 0x20 ADD SWAP1 DUP2 MSTORE PUSH1 0x20 ADD PUSH1 0x0 KECCAK256 PUSH1 0x0 PUSH2 0x100 EXP DUP2 SLOAD DUP2 PUSH1 0xFF MUL NOT AND SWAP1 DUP4 ISZERO ISZERO MUL OR SWAP1 SSTORE POP PUSH1 0x0 DUP2 GT ISZERO PUSH2 0x436 JUMPI DUP1 PUSH1 0x1 PUSH1 0x0 DUP5 PUSH20 0xFFFFFFFFFFFFFFFFFFFFFFFFFFFFFFFFFFFFFFFF AND PUSH20 0xFFFFFFFFFFFFFFFFFFFFFFFFFFFFFFFFFFFFFFFF AND DUP2 MSTORE PUSH1 0x20 ADD SWAP1 DUP2 MSTORE PUSH1 0x20 ADD PUSH1 0x0 KECCAK256 PUSH1 0x0 DUP3 DUP3 SLOAD PUSH2 0x42E SWAP2 SWAP1 PUSH2 0xFF5 JUMP JUMPDEST SWAP3 POP POP DUP2 SWAP1 SSTORE POP JUMPDEST JUMPDEST POP POP JUMP JUMPDEST PUSH1 0x0 DUP1 PUSH1 0x0 SWAP1 SLOAD SWAP1 PUSH2 0x100 EXP SWAP1 DIV PUSH20 0xFFFFFFFFFFFFFFFFFFFFFFFFFFFFFFFFFFFFFFFF AND SWAP1 POP SWAP1 JUMP JUMPDEST PUSH1 0x60 PUSH1 0x0 DUP3 PUSH1 0x40 MLOAD PUSH1 0x24 ADD PUSH1 0x40 MLOAD PUSH1 0x20 DUP2 DUP4 SUB SUB DUP2 MSTORE SWAP1 PUSH1 0x40 MSTORE SWAP1 PUSH1 0x40 MLOAD PUSH2 0x48C SWAP2 SWAP1 PUSH2 0x1070 JUMP JUMPDEST PUSH1 0x40 MLOAD DUP1 SWAP2 SUB SWAP1 KECCAK256 PUSH28 0xFFFFFFFFFFFFFFFFFFFFFFFFFFFFFFFFFFFFFFFFFFFFFFFFFFFFFFFF NOT AND PUSH1 0x20 DUP3 ADD DUP1 MLOAD PUSH28 0xFFFFFFFFFFFFFFFFFFFFFFFFFFFFFFFFFFFFFFFFFFFFFFFFFFFFFFFF DUP4 DUP2 DUP4 AND OR DUP4 MSTORE POP POP POP POP SWAP1 POP DUP1 SWAP2 POP POP SWAP2 SWAP1 POP JUMP JUMPDEST PUSH1 0x60 CALLER PUSH20 0xFFFFFFFFFFFFFFFFFFFFFFFFFFFFFFFFFFFFFFFF AND PUSH1 0x0 DUP1 SLOAD SWAP1 PUSH2 0x100 EXP SWAP1 DIV PUSH20 0xFFFFFFFFFFFFFFFFFFFFFFFFFFFFFFFFFFFFFFFF AND PUSH20 0xFFFFFFFFFFFFFFFFFFFFFFFFFFFFFFFFFFFFFFFF AND EQ PUSH2 0x6A5 JUMPI PUSH1 0x2 PUSH1 0x0 CALLER PUSH20 0xFFFFFFFFFFFFFFFFFFFFFFFFFFFFFFFFFFFFFFFF AND PUSH20 0xFFFFFFFFFFFFFFFFFFFFFFFFFFFFFFFFFFFFFFFF AND DUP2 MSTORE PUSH1 0x20 ADD SWAP1 DUP2 MSTORE PUSH1 0x20 ADD PUSH1 0x0 KECCAK256 PUSH1 0x0 SWAP1 SLOAD SWAP1 PUSH2 0x100 EXP SWAP1 DIV PUSH1 0xFF AND PUSH2 0x5CD JUMPI PUSH1 0x40 MLOAD PUSH32 0x8C379A000000000000000000000000000000000000000000000000000000000 DUP2 MSTORE PUSH1 0x4 ADD PUSH2 0x5C4 SWAP1 PUSH2 0x110A JUMP JUMPDEST PUSH1 0x40 MLOAD DUP1 SWAP2 SUB SWAP1 REVERT JUMPDEST DUP3 PUSH1 0x1 PUSH1 0x0 CALLER PUSH20 0xFFFFFFFFFFFFFFFFFFFFFFFFFFFFFFFFFFFFFFFF AND PUSH20 0xFFFFFFFFFFFFFFFFFFFFFFFFFFFFFFFFFFFFFFFF AND DUP2 MSTORE PUSH1 0x20 ADD SWAP1 DUP2 MSTORE PUSH1 0x20 ADD PUSH1 0x0 KECCAK256 SLOAD GT PUSH2 0x64E JUMPI PUSH1 0x40 MLOAD PUSH32 0x8C379A000000000000000000000000000000000000000000000000000000000 DUP2 MSTORE PUSH1 0x4 ADD PUSH2 0x645 SWAP1 PUSH2 0x119C JUMP JUMPDEST PUSH1 0x40 MLOAD DUP1 SWAP2 SUB SWAP1 REVERT JUMPDEST DUP3 PUSH1 0x1 PUSH1 0x0 CALLER PUSH20 0xFFFFFFFFFFFFFFFFFFFFFFFFFFFFFFFFFFFFFFFF AND PUSH20 0xFFFFFFFFFFFFFFFFFFFFFFFFFFFFFFFFFFFFFFFF AND DUP2 MSTORE PUSH1 0x20 ADD SWAP1 DUP2 MSTORE PUSH1 0x20 ADD PUSH1 0x0 KECCAK256 PUSH1 0x0 DUP3 DUP3 SLOAD PUSH2 0x69D SWAP2 SWAP1 PUSH2 0x11BC JUMP JUMPDEST SWAP3 POP POP DUP2 SWAP1 SSTORE POP JUMPDEST PUSH1 0x0 DUP1 DUP6 PUSH20 0xFFFFFFFFFFFFFFFFFFFFFFFFFFFFFFFFFFFFFFFF AND DUP6 DUP6 PUSH1 0x40 MLOAD PUSH2 0x6CE SWAP2 SWAP1 PUSH2 0x122C JUMP JUMPDEST PUSH1 0x0 PUSH1 0x40 MLOAD DUP1 DUP4 SUB DUP2 DUP6 DUP8 GAS CALL SWAP3 POP POP POP RETURNDATASIZE DUP1 PUSH1 0x0 DUP2 EQ PUSH2 0x70B JUMPI PUSH1 0x40 MLOAD SWAP2 POP PUSH1 0x1F NOT PUSH1 0x3F RETURNDATASIZE ADD AND DUP3 ADD PUSH1 0x40 MSTORE RETURNDATASIZE DUP3 MSTORE RETURNDATASIZE PUSH1 0x0 PUSH1 0x20 DUP5 ADD RETURNDATACOPY PUSH2 0x710 JUMP JUMPDEST PUSH1 0x60 SWAP2 POP JUMPDEST POP SWAP2 POP SWAP2 POP DUP2 PUSH2 0x755 JUMPI PUSH1 0x40 MLOAD PUSH32 0x8C379A000000000000000000000000000000000000000000000000000000000 DUP2 MSTORE PUSH1 0x4 ADD PUSH2 0x74C SWAP1 PUSH2 0x128F JUMP JUMPDEST PUSH1 0x40 MLOAD DUP1 SWAP2 SUB SWAP1 REVERT JUMPDEST DUP1 SWAP3 POP POP POP SWAP4 SWAP3 POP POP POP JUMP JUMPDEST PUSH1 0x0 CALLER SWAP1 POP SWAP1 JUMP JUMPDEST PUSH1 0x0 PUSH1 0x3 PUSH1 0x0 DUP4 PUSH20 0xFFFFFFFFFFFFFFFFFFFFFFFFFFFFFFFFFFFFFFFF AND PUSH20 0xFFFFFFFFFFFFFFFFFFFFFFFFFFFFFFFFFFFFFFFF AND DUP2 MSTORE PUSH1 0x20 ADD SWAP1 DUP2 MSTORE PUSH1 0x20 ADD PUSH1 0x0 KECCAK256 PUSH1 0x0 SWAP1 SLOAD SWAP1 PUSH2 0x100 EXP SWAP1 DIV PUSH1 0xFF AND SWAP1 POP SWAP2 SWAP1 POP JUMP JUMPDEST PUSH1 0x3 PUSH1 0x0 CALLER PUSH20 0xFFFFFFFFFFFFFFFFFFFFFFFFFFFFFFFFFFFFFFFF AND PUSH20 0xFFFFFFFFFFFFFFFFFFFFFFFFFFFFFFFFFFFFFFFF AND DUP2 MSTORE PUSH1 0x20 ADD SWAP1 DUP2 MSTORE PUSH1 0x20 ADD PUSH1 0x0 KECCAK256 PUSH1 0x0 SWAP1 SLOAD SWAP1 PUSH2 0x100 EXP SWAP1 DIV PUSH1 0xFF AND PUSH2 0x84B JUMPI PUSH1 0x40 MLOAD PUSH32 0x8C379A000000000000000000000000000000000000000000000000000000000 DUP2 MSTORE PUSH1 0x4 ADD PUSH2 0x842 SWAP1 PUSH2 0x1321 JUMP JUMPDEST PUSH1 0x40 MLOAD DUP1 SWAP2 SUB SWAP1 REVERT JUMPDEST PUSH1 0x5 PUSH1 0x0 SWAP1 SLOAD SWAP1 PUSH2 0x100 EXP SWAP1 DIV PUSH20 0xFFFFFFFFFFFFFFFFFFFFFFFFFFFFFFFFFFFFFFFF AND PUSH20 0xFFFFFFFFFFFFFFFFFFFFFFFFFFFFFFFFFFFFFFFF AND DUP2 PUSH20 0xFFFFFFFFFFFFFFFFFFFFFFFFFFFFFFFFFFFFFFFF AND EQ PUSH2 0x8EA JUMPI DUP1 PUSH1 0x5 PUSH1 0x0 PUSH2 0x100 EXP DUP2 SLOAD DUP2 PUSH20 0xFFFFFFFFFFFFFFFFFFFFFFFFFFFFFFFFFFFFFFFF MUL NOT AND SWAP1 DUP4 PUSH20 0xFFFFFFFFFFFFFFFFFFFFFFFFFFFFFFFFFFFFFFFF AND MUL OR SWAP1 SSTORE POP PUSH1 0x0 PUSH1 0x6 DUP2 SWAP1 SSTORE POP JUMPDEST PUSH1 0x6 PUSH1 0x0 DUP2 SLOAD DUP1 SWAP3 SWAP2 SWAP1 PUSH2 0x8FD SWAP1 PUSH2 0x1341 JUMP JUMPDEST SWAP2 SWAP1 POP SSTORE POP PUSH1 0x1 PUSH1 0x4 PUSH1 0x0 DUP4 PUSH20 0xFFFFFFFFFFFFFFFFFFFFFFFFFFFFFFFFFFFFFFFF AND PUSH20 0xFFFFFFFFFFFFFFFFFFFFFFFFFFFFFFFFFFFFFFFF AND DUP2 MSTORE PUSH1 0x20 ADD SWAP1 DUP2 MSTORE PUSH1 0x20 ADD PUSH1 0x0 KECCAK256 PUSH1 0x0 CALLER PUSH20 0xFFFFFFFFFFFFFFFFFFFFFFFFFFFFFFFFFFFFFFFF AND PUSH20 0xFFFFFFFFFFFFFFFFFFFFFFFFFFFFFFFFFFFFFFFF AND DUP2 MSTORE PUSH1 0x20 ADD SWAP1 DUP2 MSTORE PUSH1 0x20 ADD PUSH1 0x0 KECCAK256 PUSH1 0x0 PUSH2 0x100 EXP DUP2 SLOAD DUP2 PUSH1 0xFF MUL NOT AND SWAP1 DUP4 ISZERO ISZERO MUL OR SWAP1 SSTORE POP PUSH1 0x3 PUSH1 0x6 SLOAD SUB PUSH2 0xA04 JUMPI PUSH1 0x5 PUSH1 0x0 SWAP1 SLOAD SWAP1 PUSH2 0x100 EXP SWAP1 DIV PUSH20 0xFFFFFFFFFFFFFFFFFFFFFFFFFFFFFFFFFFFFFFFF AND PUSH1 0x0 DUP1 PUSH2 0x100 EXP DUP2 SLOAD DUP2 PUSH20 0xFFFFFFFFFFFFFFFFFFFFFFFFFFFFFFFFFFFFFFFF MUL NOT AND SWAP1 DUP4 PUSH20 0xFFFFFFFFFFFFFFFFFFFFFFFFFFFFFFFFFFFFFFFF AND MUL OR SWAP1 SSTORE POP JUMPDEST POP JUMP JUMPDEST PUSH1 0x0 SELFBALANCE SWAP1 POP SWAP1 JUMP JUMPDEST CALLER PUSH20 0xFFFFFFFFFFFFFFFFFFFFFFFFFFFFFFFFFFFFFFFF AND PUSH1 0x0 DUP1 SLOAD SWAP1 PUSH2 0x100 EXP SWAP1 DIV PUSH20 0xFFFFFFFFFFFFFFFFFFFFFFFFFFFFFFFFFFFFFFFF AND PUSH20 0xFFFFFFFFFFFFFFFFFFFFFFFFFFFFFFFFFFFFFFFF AND SUB PUSH2 0xABB JUMPI PUSH1 0x1 PUSH1 0x3 PUSH1 0x0 DUP4 PUSH20 0xFFFFFFFFFFFFFFFFFFFFFFFFFFFFFFFFFFFFFFFF AND PUSH20 0xFFFFFFFFFFFFFFFFFFFFFFFFFFFFFFFFFFFFFFFF AND DUP2 MSTORE PUSH1 0x20 ADD SWAP1 DUP2 MSTORE PUSH1 0x20 ADD PUSH1 0x0 KECCAK256 PUSH1 0x0 PUSH2 0x100 EXP DUP2 SLOAD DUP2 PUSH1 0xFF MUL NOT AND SWAP1 DUP4 ISZERO ISZERO MUL OR SWAP1 SSTORE POP JUMPDEST POP JUMP JUMPDEST PUSH1 0x0 PUSH1 0x40 MLOAD SWAP1 POP SWAP1 JUMP JUMPDEST PUSH1 0x0 DUP1 REVERT JUMPDEST PUSH1 0x0 DUP1 REVERT JUMPDEST PUSH1 0x0 PUSH20 0xFFFFFFFFFFFFFFFFFFFFFFFFFFFFFFFFFFFFFFFF DUP3 AND SWAP1 POP SWAP2 SWAP1 POP JUMP JUMPDEST PUSH1 0x0 PUSH2 0xAFD DUP3 PUSH2 0xAD2 JUMP JUMPDEST SWAP1 POP SWAP2 SWAP1 POP JUMP JUMPDEST PUSH2 0xB0D DUP2 PUSH2 0xAF2 JUMP JUMPDEST DUP2 EQ PUSH2 0xB18 JUMPI PUSH1 0x0 DUP1 REVERT JUMPDEST POP JUMP JUMPDEST PUSH1 0x0 DUP2 CALLDATALOAD SWAP1 POP PUSH2 0xB2A DUP2 PUSH2 0xB04 JUMP JUMPDEST SWAP3 SWAP2 POP POP JUMP JUMPDEST PUSH1 0x0 PUSH1 0x20 DUP3 DUP5 SUB SLT ISZERO PUSH2 0xB46 JUMPI PUSH2 0xB45 PUSH2 0xAC8 JUMP JUMPDEST JUMPDEST PUSH1 0x0 PUSH2 0xB54 DUP5 DUP3 DUP6 ADD PUSH2 0xB1B JUMP JUMPDEST SWAP2 POP POP SWAP3 SWAP2 POP POP JUMP JUMPDEST PUSH1 0x0 DUP2 ISZERO ISZERO SWAP1 POP SWAP2 SWAP1 POP JUMP JUMPDEST PUSH2 0xB72 DUP2 PUSH2 0xB5D JUMP JUMPDEST DUP3 MSTORE POP POP JUMP JUMPDEST PUSH1 0x0 DUP2 SWAP1 POP SWAP2 SWAP1 POP JUMP JUMPDEST PUSH2 0xB8B DUP2 PUSH2 0xB78 JUMP JUMPDEST DUP3 MSTORE POP POP JUMP JUMPDEST PUSH1 0x0 PUSH1 0x40 DUP3 ADD SWAP1 POP PUSH2 0xBA6 PUSH1 0x0 DUP4 ADD DUP6 PUSH2 0xB69 JUMP JUMPDEST PUSH2 0xBB3 PUSH1 0x20 DUP4 ADD DUP5 PUSH2 0xB82 JUMP JUMPDEST SWAP4 SWAP3 POP POP POP JUMP JUMPDEST PUSH2 0xBC3 DUP2 PUSH2 0xB78 JUMP JUMPDEST DUP2 EQ PUSH2 0xBCE JUMPI PUSH1 0x0 DUP1 REVERT JUMPDEST POP JUMP JUMPDEST PUSH1 0x0 DUP2 CALLDATALOAD SWAP1 POP PUSH2 0xBE0 DUP2 PUSH2 0xBBA JUMP JUMPDEST SWAP3 SWAP2 POP POP JUMP JUMPDEST PUSH1 0x0 DUP1 PUSH1 0x40 DUP4 DUP6 SUB SLT ISZERO PUSH2 0xBFD JUMPI PUSH2 0xBFC PUSH2 0xAC8 JUMP JUMPDEST JUMPDEST PUSH1 0x0 PUSH2 0xC0B DUP6 DUP3 DUP7 ADD PUSH2 0xB1B JUMP JUMPDEST SWAP3 POP POP PUSH1 0x20 PUSH2 0xC1C DUP6 DUP3 DUP7 ADD PUSH2 0xBD1 JUMP JUMPDEST SWAP2 POP POP SWAP3 POP SWAP3 SWAP1 POP JUMP JUMPDEST PUSH2 0xC2F DUP2 PUSH2 0xAF2 JUMP JUMPDEST DUP3 MSTORE POP POP JUMP JUMPDEST PUSH1 0x0 PUSH1 0x20 DUP3 ADD SWAP1 POP PUSH2 0xC4A PUSH1 0x0 DUP4 ADD DUP5 PUSH2 0xC26 JUMP JUMPDEST SWAP3 SWAP2 POP POP JUMP JUMPDEST PUSH1 0x0 DUP1 REVERT JUMPDEST PUSH1 0x0 DUP1 REVERT JUMPDEST PUSH1 0x0 PUSH1 0x1F NOT PUSH1 0x1F DUP4 ADD AND SWAP1 POP SWAP2 SWAP1 POP JUMP JUMPDEST PUSH32 0x4E487B7100000000000000000000000000000000000000000000000000000000 PUSH1 0x0 MSTORE PUSH1 0x41 PUSH1 0x4 MSTORE PUSH1 0x24 PUSH1 0x0 REVERT JUMPDEST PUSH2 0xCA3 DUP3 PUSH2 0xC5A JUMP JUMPDEST DUP2 ADD DUP2 DUP2 LT PUSH8 0xFFFFFFFFFFFFFFFF DUP3 GT OR ISZERO PUSH2 0xCC2 JUMPI PUSH2 0xCC1 PUSH2 0xC6B JUMP JUMPDEST JUMPDEST DUP1 PUSH1 0x40 MSTORE POP POP POP JUMP JUMPDEST PUSH1 0x0 PUSH2 0xCD5 PUSH2 0xABE JUMP JUMPDEST SWAP1 POP PUSH2 0xCE1 DUP3 DUP3 PUSH2 0xC9A JUMP JUMPDEST SWAP2 SWAP1 POP JUMP JUMPDEST PUSH1 0x0 PUSH8 0xFFFFFFFFFFFFFFFF DUP3 GT ISZERO PUSH2 0xD01 JUMPI PUSH2 0xD00 PUSH2 0xC6B JUMP JUMPDEST JUMPDEST PUSH2 0xD0A DUP3 PUSH2 0xC5A JUMP JUMPDEST SWAP1 POP PUSH1 0x20 DUP2 ADD SWAP1 POP SWAP2 SWAP1 POP JUMP JUMPDEST DUP3 DUP2 DUP4 CALLDATACOPY PUSH1 0x0 DUP4 DUP4 ADD MSTORE POP POP POP JUMP JUMPDEST PUSH1 0x0 PUSH2 0xD39 PUSH2 0xD34 DUP5 PUSH2 0xCE6 JUMP JUMPDEST PUSH2 0xCCB JUMP JUMPDEST SWAP1 POP DUP3 DUP2 MSTORE PUSH1 0x20 DUP2 ADD DUP5 DUP5 DUP5 ADD GT ISZERO PUSH2 0xD55 JUMPI PUSH2 0xD54 PUSH2 0xC55 JUMP JUMPDEST JUMPDEST PUSH2 0xD60 DUP5 DUP3 DUP6 PUSH2 0xD17 JUMP JUMPDEST POP SWAP4 SWAP3 POP POP POP JUMP JUMPDEST PUSH1 0x0 DUP3 PUSH1 0x1F DUP4 ADD SLT PUSH2 0xD7D JUMPI PUSH2 0xD7C PUSH2 0xC50 JUMP JUMPDEST JUMPDEST DUP2 CALLDATALOAD PUSH2 0xD8D DUP5 DUP3 PUSH1 0x20 DUP7 ADD PUSH2 0xD26 JUMP JUMPDEST SWAP2 POP POP SWAP3 SWAP2 POP POP JUMP JUMPDEST PUSH1 0x0 PUSH1 0x20 DUP3 DUP5 SUB SLT ISZERO PUSH2 0xDAC JUMPI PUSH2 0xDAB PUSH2 0xAC8 JUMP JUMPDEST JUMPDEST PUSH1 0x0 DUP3 ADD CALLDATALOAD PUSH8 0xFFFFFFFFFFFFFFFF DUP2 GT ISZERO PUSH2 0xDCA JUMPI PUSH2 0xDC9 PUSH2 0xACD JUMP JUMPDEST JUMPDEST PUSH2 0xDD6 DUP5 DUP3 DUP6 ADD PUSH2 0xD68 JUMP JUMPDEST SWAP2 POP POP SWAP3 SWAP2 POP POP JUMP JUMPDEST PUSH1 0x0 DUP2 MLOAD SWAP1 POP SWAP2 SWAP1 POP JUMP JUMPDEST PUSH1 0x0 DUP3 DUP3 MSTORE PUSH1 0x20 DUP3 ADD SWAP1 POP SWAP3 SWAP2 POP POP JUMP JUMPDEST PUSH1 0x0 JUMPDEST DUP4 DUP2 LT ISZERO PUSH2 0xE19 JUMPI DUP1 DUP3 ADD MLOAD DUP2 DUP5 ADD MSTORE PUSH1 0x20 DUP2 ADD SWAP1 POP PUSH2 0xDFE JUMP JUMPDEST PUSH1 0x0 DUP5 DUP5 ADD MSTORE POP POP POP POP JUMP JUMPDEST PUSH1 0x0 PUSH2 0xE30 DUP3 PUSH2 0xDDF JUMP JUMPDEST PUSH2 0xE3A DUP2 DUP6 PUSH2 0xDEA JUMP JUMPDEST SWAP4 POP PUSH2 0xE4A DUP2 DUP6 PUSH1 0x20 DUP7 ADD PUSH2 0xDFB JUMP JUMPDEST PUSH2 0xE53 DUP2 PUSH2 0xC5A JUMP JUMPDEST DUP5 ADD SWAP2 POP POP SWAP3 SWAP2 POP POP JUMP JUMPDEST PUSH1 0x0 PUSH1 0x20 DUP3 ADD SWAP1 POP DUP2 DUP2 SUB PUSH1 0x0 DUP4 ADD MSTORE PUSH2 0xE78 DUP2 DUP5 PUSH2 0xE25 JUMP JUMPDEST SWAP1 POP SWAP3 SWAP2 POP POP JUMP JUMPDEST PUSH1 0x0 PUSH8 0xFFFFFFFFFFFFFFFF DUP3 GT ISZERO PUSH2 0xE9B JUMPI PUSH2 0xE9A PUSH2 0xC6B JUMP JUMPDEST JUMPDEST PUSH2 0xEA4 DUP3 PUSH2 0xC5A JUMP JUMPDEST SWAP1 POP PUSH1 0x20 DUP2 ADD SWAP1 POP SWAP2 SWAP1 POP JUMP JUMPDEST PUSH1 0x0 PUSH2 0xEC4 PUSH2 0xEBF DUP5 PUSH2 0xE80 JUMP JUMPDEST PUSH2 0xCCB JUMP JUMPDEST SWAP1 POP DUP3 DUP2 MSTORE PUSH1 0x20 DUP2 ADD DUP5 DUP5 DUP5 ADD GT ISZERO PUSH2 0xEE0 JUMPI PUSH2 0xEDF PUSH2 0xC55 JUMP JUMPDEST JUMPDEST PUSH2 0xEEB DUP5 DUP3 DUP6 PUSH2 0xD17 JUMP JUMPDEST POP SWAP4 SWAP3 POP POP POP JUMP JUMPDEST PUSH1 0x0 DUP3 PUSH1 0x1F DUP4 ADD SLT PUSH2 0xF08 JUMPI PUSH2 0xF07 PUSH2 0xC50 JUMP JUMPDEST JUMPDEST DUP2 CALLDATALOAD PUSH2 0xF18 DUP5 DUP3 PUSH1 0x20 DUP7 ADD PUSH2 0xEB1 JUMP JUMPDEST SWAP2 POP POP SWAP3 SWAP2 POP POP JUMP JUMPDEST PUSH1 0x0 DUP1 PUSH1 0x0 PUSH1 0x60 DUP5 DUP7 SUB SLT ISZERO PUSH2 0xF3A JUMPI PUSH2 0xF39 PUSH2 0xAC8 JUMP JUMPDEST JUMPDEST PUSH1 0x0 PUSH2 0xF48 DUP7 DUP3 DUP8 ADD PUSH2 0xB1B JUMP JUMPDEST SWAP4 POP POP PUSH1 0x20 PUSH2 0xF59 DUP7 DUP3 DUP8 ADD PUSH2 0xBD1 JUMP JUMPDEST SWAP3 POP POP PUSH1 0x40 DUP5 ADD CALLDATALOAD PUSH8 0xFFFFFFFFFFFFFFFF DUP2 GT ISZERO PUSH2 0xF7A JUMPI PUSH2 0xF79 PUSH2 0xACD JUMP JUMPDEST JUMPDEST PUSH2 0xF86 DUP7 DUP3 DUP8 ADD PUSH2 0xEF3 JUMP JUMPDEST SWAP2 POP POP SWAP3 POP SWAP3 POP SWAP3 JUMP JUMPDEST PUSH1 0x0 PUSH1 0x20 DUP3 ADD SWAP1 POP PUSH2 0xFA5 PUSH1 0x0 DUP4 ADD DUP5 PUSH2 0xB69 JUMP JUMPDEST SWAP3 SWAP2 POP POP JUMP JUMPDEST PUSH1 0x0 PUSH1 0x20 DUP3 ADD SWAP1 POP PUSH2 0xFC0 PUSH1 0x0 DUP4 ADD DUP5 PUSH2 0xB82 JUMP JUMPDEST SWAP3 SWAP2 POP POP JUMP JUMPDEST PUSH32 0x4E487B7100000000000000000000000000000000000000000000000000000000 PUSH1 0x0 MSTORE PUSH1 0x11 PUSH1 0x4 MSTORE PUSH1 0x24 PUSH1 0x0 REVERT JUMPDEST PUSH1 0x0 PUSH2 0x1000 DUP3 PUSH2 0xB78 JUMP JUMPDEST SWAP2 POP PUSH2 0x100B DUP4 PUSH2 0xB78 JUMP JUMPDEST SWAP3 POP DUP3 DUP3 ADD SWAP1 POP DUP1 DUP3 GT ISZERO PUSH2 0x1023 JUMPI PUSH2 0x1022 PUSH2 0xFC6 JUMP JUMPDEST JUMPDEST SWAP3 SWAP2 POP POP JUMP JUMPDEST PUSH1 0x0 DUP2 MLOAD SWAP1 POP SWAP2 SWAP1 POP JUMP JUMPDEST PUSH1 0x0 DUP2 SWAP1 POP SWAP3 SWAP2 POP POP JUMP JUMPDEST PUSH1 0x0 PUSH2 0x104A DUP3 PUSH2 0x1029 JUMP JUMPDEST PUSH2 0x1054 DUP2 DUP6 PUSH2 0x1034 JUMP JUMPDEST SWAP4 POP PUSH2 0x1064 DUP2 DUP6 PUSH1 0x20 DUP7 ADD PUSH2 0xDFB JUMP JUMPDEST DUP1 DUP5 ADD SWAP2 POP POP SWAP3 SWAP2 POP POP JUMP JUMPDEST PUSH1 0x0 PUSH2 0x107C DUP3 DUP5 PUSH2 0x103F JUMP JUMPDEST SWAP2 POP DUP2 SWAP1 POP SWAP3 SWAP2 POP POP JUMP JUMPDEST PUSH1 0x0 DUP3 DUP3 MSTORE PUSH1 0x20 DUP3 ADD SWAP1 POP SWAP3 SWAP2 POP POP JUMP JUMPDEST PUSH32 0x596F7520617265206E6F7420616C6C6F77656420746F207472616E7361637469 PUSH1 0x0 DUP3 ADD MSTORE PUSH32 0x6F6E000000000000000000000000000000000000000000000000000000000000 PUSH1 0x20 DUP3 ADD MSTORE POP JUMP JUMPDEST PUSH1 0x0 PUSH2 0x10F4 PUSH1 0x22 DUP4 PUSH2 0x1087 JUMP JUMPDEST SWAP2 POP PUSH2 0x10FF DUP3 PUSH2 0x1098 JUMP JUMPDEST PUSH1 0x40 DUP3 ADD SWAP1 POP SWAP2 SWAP1 POP JUMP JUMPDEST PUSH1 0x0 PUSH1 0x20 DUP3 ADD SWAP1 POP DUP2 DUP2 SUB PUSH1 0x0 DUP4 ADD MSTORE PUSH2 0x1123 DUP2 PUSH2 0x10E7 JUMP JUMPDEST SWAP1 POP SWAP2 SWAP1 POP JUMP JUMPDEST PUSH32 0x596F752063616E206E6F74207472616E666572206D6F7265207468616E20796F PUSH1 0x0 DUP3 ADD MSTORE PUSH32 0x7520616C6C6F7765640000000000000000000000000000000000000000000000 PUSH1 0x20 DUP3 ADD MSTORE POP JUMP JUMPDEST PUSH1 0x0 PUSH2 0x1186 PUSH1 0x29 DUP4 PUSH2 0x1087 JUMP JUMPDEST SWAP2 POP PUSH2 0x1191 DUP3 PUSH2 0x112A JUMP JUMPDEST PUSH1 0x40 DUP3 ADD SWAP1 POP SWAP2 SWAP1 POP JUMP JUMPDEST PUSH1 0x0 PUSH1 0x20 DUP3 ADD SWAP1 POP DUP2 DUP2 SUB PUSH1 0x0 DUP4 ADD MSTORE PUSH2 0x11B5 DUP2 PUSH2 0x1179 JUMP JUMPDEST SWAP1 POP SWAP2 SWAP1 POP JUMP JUMPDEST PUSH1 0x0 PUSH2 0x11C7 DUP3 PUSH2 0xB78 JUMP JUMPDEST SWAP2 POP PUSH2 0x11D2 DUP4 PUSH2 0xB78 JUMP JUMPDEST SWAP3 POP DUP3 DUP3 SUB SWAP1 POP DUP2 DUP2 GT ISZERO PUSH2 0x11EA JUMPI PUSH2 0x11E9 PUSH2 0xFC6 JUMP JUMPDEST JUMPDEST SWAP3 SWAP2 POP POP JUMP JUMPDEST PUSH1 0x0 DUP2 SWAP1 POP SWAP3 SWAP2 POP POP JUMP JUMPDEST PUSH1 0x0 PUSH2 0x1206 DUP3 PUSH2 0xDDF JUMP JUMPDEST PUSH2 0x1210 DUP2 DUP6 PUSH2 0x11F0 JUMP JUMPDEST SWAP4 POP PUSH2 0x1220 DUP2 DUP6 PUSH1 0x20 DUP7 ADD PUSH2 0xDFB JUMP JUMPDEST DUP1 DUP5 ADD SWAP2 POP POP SWAP3 SWAP2 POP POP JUMP JUMPDEST PUSH1 0x0 PUSH2 0x1238 DUP3 DUP5 PUSH2 0x11FB JUMP JUMPDEST SWAP2 POP DUP2 SWAP1 POP SWAP3 SWAP2 POP POP JUMP JUMPDEST PUSH32 0x496E76616C6964205472616E7366657200000000000000000000000000000000 PUSH1 0x0 DUP3 ADD MSTORE POP JUMP JUMPDEST PUSH1 0x0 PUSH2 0x1279 PUSH1 0x10 DUP4 PUSH2 0x1087 JUMP JUMPDEST SWAP2 POP PUSH2 0x1284 DUP3 PUSH2 0x1243 JUMP JUMPDEST PUSH1 0x20 DUP3 ADD SWAP1 POP SWAP2 SWAP1 POP JUMP JUMPDEST PUSH1 0x0 PUSH1 0x20 DUP3 ADD SWAP1 POP DUP2 DUP2 SUB PUSH1 0x0 DUP4 ADD MSTORE PUSH2 0x12A8 DUP2 PUSH2 0x126C JUMP JUMPDEST SWAP1 POP SWAP2 SWAP1 POP JUMP JUMPDEST PUSH32 0x596F7520617265206E6F7420616C6C6F77656420746F20736574206E6577206F PUSH1 0x0 DUP3 ADD MSTORE PUSH32 0x776E657200000000000000000000000000000000000000000000000000000000 PUSH1 0x20 DUP3 ADD MSTORE POP JUMP JUMPDEST PUSH1 0x0 PUSH2 0x130B PUSH1 0x24 DUP4 PUSH2 0x1087 JUMP JUMPDEST SWAP2 POP PUSH2 0x1316 DUP3 PUSH2 0x12AF JUMP JUMPDEST PUSH1 0x40 DUP3 ADD SWAP1 POP SWAP2 SWAP1 POP JUMP JUMPDEST PUSH1 0x0 PUSH1 0x20 DUP3 ADD SWAP1 POP DUP2 DUP2 SUB PUSH1 0x0 DUP4 ADD MSTORE PUSH2 0x133A DUP2 PUSH2 0x12FE JUMP JUMPDEST SWAP1 POP SWAP2 SWAP1 POP JUMP JUMPDEST PUSH1 0x0 PUSH2 0x134C DUP3 PUSH2 0xB78 JUMP JUMPDEST SWAP2 POP PUSH32 0xFFFFFFFFFFFFFFFFFFFFFFFFFFFFFFFFFFFFFFFFFFFFFFFFFFFFFFFFFFFFFFFF DUP3 SUB PUSH2 0x137E JUMPI PUSH2 0x137D PUSH2 0xFC6 JUMP JUMPDEST JUMPDEST PUSH1 0x1 DUP3 ADD SWAP1 POP SWAP2 SWAP1 POP JUMP INVALID LOG2 PUSH5 0x6970667358 0x22 SLT KECCAK256 EXP SWAP12 EXTCODEHASH 0xD8 0xEB LOG3 STOP 0xEF SWAP13 0xDF 0xD5 0xF6 POP PUSH17 0x3F917FEA96B755AEBF9C9A364799AF8901 LOG1 PUSH5 0x736F6C6343 STOP ADDMOD SLT STOP CALLER "
				},
				"gasEstimates": {
					"creation": {
						"codeDepositCost": "1011000",
						"executionCost": "25313",
						"totalCost": "1036313"
					},
					"external": {
						"AddAllowance(address,uint256)": "infinite",
						"AddGuirdian(address)": "27067",
						"EncodeString(string)": "infinite",
						"GetBalance()": "405",
						"GetCurrentUser()": "385",
						"GetOwner()": "2567",
						"ProposeNewOwner(address)": "111522",
						"Transfer(address,uint256,bytes)": "infinite",
						"ViewAllowanceMember(address)": "5185",
						"viewGuardian(address)": "2905"
					}
				},
				"methodIdentifiers": {
					"AddAllowance(address,uint256)": "05ed0cef",
					"AddGuirdian(address)": "fb445c36",
					"EncodeString(string)": "78c3bd71",
					"GetBalance()": "f8f8a912",
					"GetCurrentUser()": "b6b3c86d",
					"GetOwner()": "0ae50a39",
					"ProposeNewOwner(address)": "f3814e74",
					"Transfer(address,uint256,bytes)": "850a6919",
					"ViewAllowanceMember(address)": "0199d925",
					"viewGuardian(address)": "dfac031d"
				}
			},
			"storageLayout": {
				"storage": [
					{
						"astId": 3,
						"contract": "SmartWallet.sol:SmartWallet",
						"label": "owner",
						"offset": 0,
						"slot": "0",
						"type": "t_address"
					},
					{
						"astId": 7,
						"contract": "SmartWallet.sol:SmartWallet",
						"label": "AllowanceLimit",
						"offset": 0,
						"slot": "1",
						"type": "t_mapping(t_address,t_uint256)"
					},
					{
						"astId": 11,
						"contract": "SmartWallet.sol:SmartWallet",
						"label": "AllowanceList",
						"offset": 0,
						"slot": "2",
						"type": "t_mapping(t_address,t_bool)"
					},
					{
						"astId": 15,
						"contract": "SmartWallet.sol:SmartWallet",
						"label": "GuirdianList",
						"offset": 0,
						"slot": "3",
						"type": "t_mapping(t_address,t_bool)"
					},
					{
						"astId": 21,
						"contract": "SmartWallet.sol:SmartWallet",
						"label": "AlreadyVotedGuardianList",
						"offset": 0,
						"slot": "4",
						"type": "t_mapping(t_address,t_mapping(t_address,t_bool))"
					},
					{
						"astId": 23,
						"contract": "SmartWallet.sol:SmartWallet",
						"label": "_nextOwner",
						"offset": 0,
						"slot": "5",
						"type": "t_address"
					},
					{
						"astId": 25,
						"contract": "SmartWallet.sol:SmartWallet",
						"label": "VotedGuirdianCount",
						"offset": 0,
						"slot": "6",
						"type": "t_uint256"
					}
				],
				"types": {
					"t_address": {
						"encoding": "inplace",
						"label": "address",
						"numberOfBytes": "20"
					},
					"t_bool": {
						"encoding": "inplace",
						"label": "bool",
						"numberOfBytes": "1"
					},
					"t_mapping(t_address,t_bool)": {
						"encoding": "mapping",
						"key": "t_address",
						"label": "mapping(address => bool)",
						"numberOfBytes": "32",
						"value": "t_bool"
					},
					"t_mapping(t_address,t_mapping(t_address,t_bool))": {
						"encoding": "mapping",
						"key": "t_address",
						"label": "mapping(address => mapping(address => bool))",
						"numberOfBytes": "32",
						"value": "t_mapping(t_address,t_bool)"
					},
					"t_mapping(t_address,t_uint256)": {
						"encoding": "mapping",
						"key": "t_address",
						"label": "mapping(address => uint256)",
						"numberOfBytes": "32",
						"value": "t_uint256"
					},
					"t_uint256": {
						"encoding": "inplace",
						"label": "uint256",
						"numberOfBytes": "32"
					}
				}
			},
			"userdoc": {
				"kind": "user",
				"methods": {},
				"version": 1
			}
		}
	}
}